{
  "_format": "hh-sol-artifact-1",
  "contractName": "MockUSDC",
  "sourceName": "contracts/MockUSDC.sol",
  "abi": [
    {
      "inputs": [],
      "stateMutability": "nonpayable",
      "type": "constructor"
    },
    {
      "anonymous": false,
      "inputs": [
        {
          "indexed": true,
          "internalType": "address",
          "name": "owner",
          "type": "address"
        },
        {
          "indexed": true,
          "internalType": "address",
          "name": "spender",
          "type": "address"
        },
        {
          "indexed": false,
          "internalType": "uint256",
          "name": "value",
          "type": "uint256"
        }
      ],
      "name": "Approval",
      "type": "event"
    },
    {
      "anonymous": false,
      "inputs": [
        {
          "indexed": true,
          "internalType": "address",
          "name": "previousOwner",
          "type": "address"
        },
        {
          "indexed": true,
          "internalType": "address",
          "name": "newOwner",
          "type": "address"
        }
      ],
      "name": "OwnershipTransferred",
      "type": "event"
    },
    {
      "anonymous": false,
      "inputs": [
        {
          "indexed": true,
          "internalType": "address",
          "name": "from",
          "type": "address"
        },
        {
          "indexed": true,
          "internalType": "address",
          "name": "to",
          "type": "address"
        },
        {
          "indexed": false,
          "internalType": "uint256",
          "name": "value",
          "type": "uint256"
        }
      ],
      "name": "Transfer",
      "type": "event"
    },
    {
      "inputs": [
        {
          "internalType": "address",
          "name": "owner",
          "type": "address"
        },
        {
          "internalType": "address",
          "name": "spender",
          "type": "address"
        }
      ],
      "name": "allowance",
      "outputs": [
        {
          "internalType": "uint256",
          "name": "",
          "type": "uint256"
        }
      ],
      "stateMutability": "view",
      "type": "function"
    },
    {
      "inputs": [
        {
          "internalType": "address",
          "name": "spender",
          "type": "address"
        },
        {
          "internalType": "uint256",
          "name": "amount",
          "type": "uint256"
        }
      ],
      "name": "approve",
      "outputs": [
        {
          "internalType": "bool",
          "name": "",
          "type": "bool"
        }
      ],
      "stateMutability": "nonpayable",
      "type": "function"
    },
    {
      "inputs": [
        {
          "internalType": "address",
          "name": "account",
          "type": "address"
        }
      ],
      "name": "balanceOf",
      "outputs": [
        {
          "internalType": "uint256",
          "name": "",
          "type": "uint256"
        }
      ],
      "stateMutability": "view",
      "type": "function"
    },
    {
      "inputs": [
        {
          "internalType": "uint256",
          "name": "amount",
          "type": "uint256"
        }
      ],
      "name": "burn",
      "outputs": [],
      "stateMutability": "nonpayable",
      "type": "function"
    },
    {
      "inputs": [],
      "name": "decimals",
      "outputs": [
        {
          "internalType": "uint8",
          "name": "",
          "type": "uint8"
        }
      ],
      "stateMutability": "view",
      "type": "function"
    },
    {
      "inputs": [
        {
          "internalType": "address",
          "name": "spender",
          "type": "address"
        },
        {
          "internalType": "uint256",
          "name": "subtractedValue",
          "type": "uint256"
        }
      ],
      "name": "decreaseAllowance",
      "outputs": [
        {
          "internalType": "bool",
          "name": "",
          "type": "bool"
        }
      ],
      "stateMutability": "nonpayable",
      "type": "function"
    },
    {
      "inputs": [],
      "name": "faucet",
      "outputs": [],
      "stateMutability": "nonpayable",
      "type": "function"
    },
    {
      "inputs": [
        {
          "internalType": "address",
          "name": "spender",
          "type": "address"
        },
        {
          "internalType": "uint256",
          "name": "addedValue",
          "type": "uint256"
        }
      ],
      "name": "increaseAllowance",
      "outputs": [
        {
          "internalType": "bool",
          "name": "",
          "type": "bool"
        }
      ],
      "stateMutability": "nonpayable",
      "type": "function"
    },
    {
      "inputs": [
        {
          "internalType": "address",
          "name": "to",
          "type": "address"
        },
        {
          "internalType": "uint256",
          "name": "amount",
          "type": "uint256"
        }
      ],
      "name": "mint",
      "outputs": [],
      "stateMutability": "nonpayable",
      "type": "function"
    },
    {
      "inputs": [],
      "name": "name",
      "outputs": [
        {
          "internalType": "string",
          "name": "",
          "type": "string"
        }
      ],
      "stateMutability": "view",
      "type": "function"
    },
    {
      "inputs": [],
      "name": "owner",
      "outputs": [
        {
          "internalType": "address",
          "name": "",
          "type": "address"
        }
      ],
      "stateMutability": "view",
      "type": "function"
    },
    {
      "inputs": [],
      "name": "renounceOwnership",
      "outputs": [],
      "stateMutability": "nonpayable",
      "type": "function"
    },
    {
      "inputs": [],
      "name": "symbol",
      "outputs": [
        {
          "internalType": "string",
          "name": "",
          "type": "string"
        }
      ],
      "stateMutability": "view",
      "type": "function"
    },
    {
      "inputs": [],
      "name": "totalSupply",
      "outputs": [
        {
          "internalType": "uint256",
          "name": "",
          "type": "uint256"
        }
      ],
      "stateMutability": "view",
      "type": "function"
    },
    {
      "inputs": [
        {
          "internalType": "address",
          "name": "to",
          "type": "address"
        },
        {
          "internalType": "uint256",
          "name": "amount",
          "type": "uint256"
        }
      ],
      "name": "transfer",
      "outputs": [
        {
          "internalType": "bool",
          "name": "",
          "type": "bool"
        }
      ],
      "stateMutability": "nonpayable",
      "type": "function"
    },
    {
      "inputs": [
        {
          "internalType": "address",
          "name": "from",
          "type": "address"
        },
        {
          "internalType": "address",
          "name": "to",
          "type": "address"
        },
        {
          "internalType": "uint256",
          "name": "amount",
          "type": "uint256"
        }
      ],
      "name": "transferFrom",
      "outputs": [
        {
          "internalType": "bool",
          "name": "",
          "type": "bool"
        }
      ],
      "stateMutability": "nonpayable",
      "type": "function"
    },
    {
      "inputs": [
        {
          "internalType": "address",
          "name": "newOwner",
          "type": "address"
        }
      ],
      "name": "transferOwnership",
      "outputs": [],
      "stateMutability": "nonpayable",
      "type": "function"
    }
  ],
  "bytecode": "0x60806040526005805460ff60a01b1916600360a11b17905534801562000023575f80fd5b506040518060400160405280600d81526020016c26b7b1b5902aa9a21021b7b4b760991b815250604051806040016040528060048152602001635553444360e01b81525081600390816200007891906200029b565b5060046200008782826200029b565b505050620000a46200009e620000e060201b60201c565b620000e4565b600554620000da903390620000c590600160a01b900460ff16600a62000476565b620000d490620f42406200048d565b62000135565b620004bd565b3390565b600580546001600160a01b038381166001600160a01b0319831681179093556040519116919082907f8be0079c531659141344cd1fd0a4f28419497f9722a3daafe3b4186f6b6457e0905f90a35050565b6001600160a01b038216620001905760405162461bcd60e51b815260206004820152601f60248201527f45524332303a206d696e7420746f20746865207a65726f206164647265737300604482015260640160405180910390fd5b8060025f828254620001a39190620004a7565b90915550506001600160a01b0382165f81815260208181526040808320805486019055518481527fddf252ad1be2c89b69c2b068fc378daa952ba7f163c4a11628f55a4df523b3ef910160405180910390a35050565b505050565b634e487b7160e01b5f52604160045260245ffd5b600181811c908216806200022757607f821691505b6020821081036200024657634e487b7160e01b5f52602260045260245ffd5b50919050565b601f821115620001f957805f5260205f20601f840160051c81016020851015620002735750805b601f840160051c820191505b8181101562000294575f81556001016200027f565b5050505050565b81516001600160401b03811115620002b757620002b7620001fe565b620002cf81620002c8845462000212565b846200024c565b602080601f83116001811462000305575f8415620002ed5750858301515b5f19600386901b1c1916600185901b1785556200035f565b5f85815260208120601f198616915b82811015620003355788860151825594840194600190910190840162000314565b50858210156200035357878501515f19600388901b60f8161c191681555b505060018460011b0185555b505050505050565b634e487b7160e01b5f52601160045260245ffd5b600181815b80851115620003bb57815f19048211156200039f576200039f62000367565b80851615620003ad57918102915b93841c939080029062000380565b509250929050565b5f82620003d35750600162000470565b81620003e157505f62000470565b8160018114620003fa5760028114620004055762000425565b600191505062000470565b60ff84111562000419576200041962000367565b50506001821b62000470565b5060208310610133831016604e8410600b84101617156200044a575081810a62000470565b6200045683836200037b565b805f19048211156200046c576200046c62000367565b0290505b92915050565b5f6200048660ff841683620003c3565b9392505050565b808202811582820484141762000470576200047062000367565b8082018082111562000470576200047062000367565b610e1680620004cb5f395ff3fe608060405234801561000f575f80fd5b5060043610610106575f3560e01c806370a082311161009e578063a457c2d71161006e578063a457c2d71461021d578063a9059cbb14610230578063dd62ed3e14610243578063de5f72fd14610256578063f2fde38b1461025e575f80fd5b806370a08231146101ca578063715018a6146101f25780638da5cb5b146101fa57806395d89b4114610215575f80fd5b8063313ce567116100d9578063313ce56714610170578063395093511461018f57806340c10f19146101a257806342966c68146101b7575f80fd5b806306fdde031461010a578063095ea7b31461012857806318160ddd1461014b57806323b872dd1461015d575b5f80fd5b610112610271565b60405161011f9190610b4c565b60405180910390f35b61013b610136366004610bb3565b610301565b604051901515815260200161011f565b6002545b60405190815260200161011f565b61013b61016b366004610bdb565b61031a565b600554600160a01b900460ff1660405160ff909116815260200161011f565b61013b61019d366004610bb3565b61033d565b6101b56101b0366004610bb3565b61035e565b005b6101b56101c5366004610c14565b610374565b61014f6101d8366004610c2b565b6001600160a01b03165f9081526020819052604090205490565b6101b5610381565b6005546040516001600160a01b03909116815260200161011f565b610112610394565b61013b61022b366004610bb3565b6103a3565b61013b61023e366004610bb3565b610422565b61014f610251366004610c4b565b61042f565b6101b5610459565b6101b561026c366004610c2b565b610508565b60606003805461028090610c7c565b80601f01602080910402602001604051908101604052809291908181526020018280546102ac90610c7c565b80156102f75780601f106102ce576101008083540402835291602001916102f7565b820191905f5260205f20905b8154815290600101906020018083116102da57829003601f168201915b5050505050905090565b5f3361030e81858561057e565b60019150505b92915050565b5f336103278582856106a2565b61033285858561071a565b506001949350505050565b5f3361030e81858561034f838361042f565b6103599190610cc8565b61057e565b6103666108bc565b6103708282610916565b5050565b61037e33826109d3565b50565b6103896108bc565b6103925f610afb565b565b60606004805461028090610c7c565b5f33816103b0828661042f565b9050838110156104155760405162461bcd60e51b815260206004820152602560248201527f45524332303a2064656372656173656420616c6c6f77616e63652062656c6f77604482015264207a65726f60d81b60648201526084015b60405180910390fd5b610332828686840361057e565b5f3361030e81858561071a565b6001600160a01b039182165f90815260016020908152604080832093909416825291909152205490565b60055461047190600160a01b900460ff16600a610dbb565b61047d90612710610dc9565b335f90815260208190526040902054106104d95760405162461bcd60e51b815260206004820152601c60248201527f596f7520616c7265616479206861766520656e6f756768205553444300000000604482015260640161040c565b6005546103929033906104f790600160a01b900460ff16600a610dbb565b610503906103e8610dc9565b610916565b6105106108bc565b6001600160a01b0381166105755760405162461bcd60e51b815260206004820152602660248201527f4f776e61626c653a206e6577206f776e657220697320746865207a65726f206160448201526564647265737360d01b606482015260840161040c565b61037e81610afb565b6001600160a01b0383166105e05760405162461bcd60e51b8152602060048201526024808201527f45524332303a20617070726f76652066726f6d20746865207a65726f206164646044820152637265737360e01b606482015260840161040c565b6001600160a01b0382166106415760405162461bcd60e51b815260206004820152602260248201527f45524332303a20617070726f766520746f20746865207a65726f206164647265604482015261737360f01b606482015260840161040c565b6001600160a01b038381165f8181526001602090815260408083209487168084529482529182902085905590518481527f8c5be1e5ebec7d5bd14f71427d1e84f3dd0314c0f7b2291e5b200ac8c7c3b92591015b60405180910390a3505050565b5f6106ad848461042f565b90505f19811461071457818110156107075760405162461bcd60e51b815260206004820152601d60248201527f45524332303a20696e73756666696369656e7420616c6c6f77616e6365000000604482015260640161040c565b610714848484840361057e565b50505050565b6001600160a01b03831661077e5760405162461bcd60e51b815260206004820152602560248201527f45524332303a207472616e736665722066726f6d20746865207a65726f206164604482015264647265737360d81b606482015260840161040c565b6001600160a01b0382166107e05760405162461bcd60e51b815260206004820152602360248201527f45524332303a207472616e7366657220746f20746865207a65726f206164647260448201526265737360e81b606482015260840161040c565b6001600160a01b0383165f90815260208190526040902054818110156108575760405162461bcd60e51b815260206004820152602660248201527f45524332303a207472616e7366657220616d6f756e7420657863656564732062604482015265616c616e636560d01b606482015260840161040c565b6001600160a01b038481165f81815260208181526040808320878703905593871680835291849020805487019055925185815290927fddf252ad1be2c89b69c2b068fc378daa952ba7f163c4a11628f55a4df523b3ef910160405180910390a3610714565b6005546001600160a01b031633146103925760405162461bcd60e51b815260206004820181905260248201527f4f776e61626c653a2063616c6c6572206973206e6f7420746865206f776e6572604482015260640161040c565b6001600160a01b03821661096c5760405162461bcd60e51b815260206004820152601f60248201527f45524332303a206d696e7420746f20746865207a65726f206164647265737300604482015260640161040c565b8060025f82825461097d9190610cc8565b90915550506001600160a01b0382165f81815260208181526040808320805486019055518481527fddf252ad1be2c89b69c2b068fc378daa952ba7f163c4a11628f55a4df523b3ef910160405180910390a35050565b6001600160a01b038216610a335760405162461bcd60e51b815260206004820152602160248201527f45524332303a206275726e2066726f6d20746865207a65726f206164647265736044820152607360f81b606482015260840161040c565b6001600160a01b0382165f9081526020819052604090205481811015610aa65760405162461bcd60e51b815260206004820152602260248201527f45524332303a206275726e20616d6f756e7420657863656564732062616c616e604482015261636560f01b606482015260840161040c565b6001600160a01b0383165f818152602081815260408083208686039055600280548790039055518581529192917fddf252ad1be2c89b69c2b068fc378daa952ba7f163c4a11628f55a4df523b3ef9101610695565b600580546001600160a01b038381166001600160a01b0319831681179093556040519116919082907f8be0079c531659141344cd1fd0a4f28419497f9722a3daafe3b4186f6b6457e0905f90a35050565b5f602080835283518060208501525f5b81811015610b7857858101830151858201604001528201610b5c565b505f604082860101526040601f19601f8301168501019250505092915050565b80356001600160a01b0381168114610bae575f80fd5b919050565b5f8060408385031215610bc4575f80fd5b610bcd83610b98565b946020939093013593505050565b5f805f60608486031215610bed575f80fd5b610bf684610b98565b9250610c0460208501610b98565b9150604084013590509250925092565b5f60208284031215610c24575f80fd5b5035919050565b5f60208284031215610c3b575f80fd5b610c4482610b98565b9392505050565b5f8060408385031215610c5c575f80fd5b610c6583610b98565b9150610c7360208401610b98565b90509250929050565b600181811c90821680610c9057607f821691505b602082108103610cae57634e487b7160e01b5f52602260045260245ffd5b50919050565b634e487b7160e01b5f52601160045260245ffd5b8082018082111561031457610314610cb4565b600181815b80851115610d1557815f1904821115610cfb57610cfb610cb4565b80851615610d0857918102915b93841c9390800290610ce0565b509250929050565b5f82610d2b57506001610314565b81610d3757505f610314565b8160018114610d4d5760028114610d5757610d73565b6001915050610314565b60ff841115610d6857610d68610cb4565b50506001821b610314565b5060208310610133831016604e8410600b8410161715610d96575081810a610314565b610da08383610cdb565b805f1904821115610db357610db3610cb4565b029392505050565b5f610c4460ff841683610d1d565b808202811582820484141761031457610314610cb456fea264697066735822122010e3a55149fb1a944e0e1043b783185c8c28962c7f0542d059fe48e419330e9a64736f6c63430008180033",
  "linkReferences": {},
  "deployedLinkReferences": {}
}