{
  "_format": "hh-sol-artifact-1",
  "contractName": "CategoryManager",
  "sourceName": "contracts/CategoryManager.sol",
  "abi": [
    {
      "inputs": [
        {
          "internalType": "address",
          "name": "_adminManager",
          "type": "address"
        }
      ],
      "stateMutability": "nonpayable",
      "type": "constructor"
    },
    {
      "anonymous": false,
      "inputs": [
        {
          "indexed": true,
          "internalType": "uint256",
          "name": "categoryId",
          "type": "uint256"
        },
        {
          "indexed": false,
          "internalType": "string",
          "name": "name",
          "type": "string"
        },
        {
          "indexed": false,
          "internalType": "uint256",
          "name": "parentId",
          "type": "uint256"
        }
      ],
      "name": "CategoryCreated",
      "type": "event"
    },
    {
      "anonymous": false,
      "inputs": [
        {
          "indexed": true,
          "internalType": "uint256",
          "name": "categoryId",
          "type": "uint256"
        }
      ],
      "name": "CategoryDeactivated",
      "type": "event"
    },
    {
      "anonymous": false,
      "inputs": [
        {
          "indexed": true,
          "internalType": "uint256",
          "name": "categoryId",
          "type": "uint256"
        },
        {
          "indexed": false,
          "internalType": "string",
          "name": "name",
          "type": "string"
        },
        {
          "indexed": false,
          "internalType": "bool",
          "name": "isActive",
          "type": "bool"
        }
      ],
      "name": "CategoryUpdated",
      "type": "event"
    },
    {
      "inputs": [],
      "name": "adminManager",
      "outputs": [
        {
          "internalType": "contract IAdminManager",
          "name": "",
          "type": "address"
        }
      ],
      "stateMutability": "view",
      "type": "function"
    },
    {
      "inputs": [
        {
          "internalType": "string",
          "name": "_name",
          "type": "string"
        },
        {
          "internalType": "string",
          "name": "_imageUrl",
          "type": "string"
        },
        {
          "internalType": "uint256",
          "name": "_parentId",
          "type": "uint256"
        },
        {
          "internalType": "uint256",
          "name": "_startTime",
          "type": "uint256"
        },
        {
          "internalType": "uint256",
          "name": "_endTime",
          "type": "uint256"
        }
      ],
      "name": "createCategory",
      "outputs": [
        {
          "internalType": "uint256",
          "name": "",
          "type": "uint256"
        }
      ],
      "stateMutability": "nonpayable",
      "type": "function"
    },
    {
      "inputs": [
        {
          "internalType": "uint256",
          "name": "_categoryId",
          "type": "uint256"
        }
      ],
      "name": "deactivateCategory",
      "outputs": [],
      "stateMutability": "nonpayable",
      "type": "function"
    },
    {
      "inputs": [],
      "name": "getActiveCategories",
      "outputs": [
        {
          "internalType": "uint256[]",
          "name": "",
          "type": "uint256[]"
        }
      ],
      "stateMutability": "view",
      "type": "function"
    },
    {
      "inputs": [
        {
          "internalType": "uint256",
          "name": "_parentId",
          "type": "uint256"
        }
      ],
      "name": "getAllSubCategoriesRecursive",
      "outputs": [
        {
          "internalType": "uint256[]",
          "name": "",
          "type": "uint256[]"
        }
      ],
      "stateMutability": "view",
      "type": "function"
    },
    {
      "inputs": [
        {
          "internalType": "uint256",
          "name": "_categoryId",
          "type": "uint256"
        }
      ],
      "name": "getCategory",
      "outputs": [
        {
          "components": [
            {
              "internalType": "uint256",
              "name": "id",
              "type": "uint256"
            },
            {
              "internalType": "string",
              "name": "name",
              "type": "string"
            },
            {
              "internalType": "string",
              "name": "imageUrl",
              "type": "string"
            },
            {
              "internalType": "uint256",
              "name": "parentId",
              "type": "uint256"
            },
            {
              "internalType": "uint256",
              "name": "level",
              "type": "uint256"
            },
            {
              "internalType": "uint256",
              "name": "startTime",
              "type": "uint256"
            },
            {
              "internalType": "uint256",
              "name": "endTime",
              "type": "uint256"
            },
            {
              "internalType": "bool",
              "name": "isActive",
              "type": "bool"
            },
            {
              "internalType": "uint256",
              "name": "createdAt",
              "type": "uint256"
            },
            {
              "internalType": "uint256",
              "name": "updatedAt",
              "type": "uint256"
            }
          ],
          "internalType": "struct ICategoryManager.Category",
          "name": "",
          "type": "tuple"
        }
      ],
      "stateMutability": "view",
      "type": "function"
    },
    {
      "inputs": [
        {
          "internalType": "uint256",
          "name": "_parentId",
          "type": "uint256"
        }
      ],
      "name": "getSubCategories",
      "outputs": [
        {
          "internalType": "uint256[]",
          "name": "",
          "type": "uint256[]"
        }
      ],
      "stateMutability": "view",
      "type": "function"
    },
    {
      "inputs": [],
      "name": "getTopLevelCategories",
      "outputs": [
        {
          "internalType": "uint256[]",
          "name": "",
          "type": "uint256[]"
        }
      ],
      "stateMutability": "view",
      "type": "function"
    },
    {
      "inputs": [
        {
          "internalType": "uint256",
          "name": "_categoryId",
          "type": "uint256"
        }
      ],
      "name": "isCategoryActive",
      "outputs": [
        {
          "internalType": "bool",
          "name": "",
          "type": "bool"
        }
      ],
      "stateMutability": "view",
      "type": "function"
    },
    {
      "inputs": [
        {
          "internalType": "uint256",
          "name": "_categoryId",
          "type": "uint256"
        },
        {
          "internalType": "string",
          "name": "_name",
          "type": "string"
        },
        {
          "internalType": "string",
          "name": "_imageUrl",
          "type": "string"
        },
        {
          "internalType": "uint256",
          "name": "_startTime",
          "type": "uint256"
        },
        {
          "internalType": "uint256",
          "name": "_endTime",
          "type": "uint256"
        },
        {
          "internalType": "bool",
          "name": "_isActive",
          "type": "bool"
        }
      ],
      "name": "updateCategory",
      "outputs": [],
      "stateMutability": "nonpayable",
      "type": "function"
    }
  ],
  "bytecode": "0x60806040526001600355348015610014575f80fd5b506040516119ad3803806119ad83398101604081905261003391610058565b600480546001600160a01b0319166001600160a01b0392909216919091179055610085565b5f60208284031215610068575f80fd5b81516001600160a01b038116811461007e575f80fd5b9392505050565b61191b806100925f395ff3fe608060405234801561000f575f80fd5b506004361061009b575f3560e01c8063bd36d35e11610063578063bd36d35e1461013d578063c0403e2714610150578063c2e06e0214610163578063f3052d261461016b578063fce8b31c1461018b575f80fd5b80630fc6fff31461009f57806361e778bb146100c55780636534b58b146100e8578063720fdc80146100fd578063a210b6a414610112575b5f80fd5b6100b26100ad3660046113de565b61019e565b6040519081526020015b60405180910390f35b6100d86100d3366004611457565b6105c1565b60405190151581526020016100bc565b6100fb6100f6366004611457565b610631565b005b6101056107b5565b6040516100bc919061146e565b600454610125906001600160a01b031681565b6040516001600160a01b0390911681526020016100bc565b6100fb61014b3660046114c1565b6108ca565b61010561015e366004611457565b610b44565b610105610cab565b61017e610179366004611457565b610da4565b6040516100bc9190611592565b610105610199366004611457565b610fb3565b600480546040516395a8c58d60e01b81525f926001600160a01b03909216916395a8c58d916101d291339160029101611634565b602060405180830381865afa1580156101ed573d5f803e3d5ffd5b505050506040513d601f19601f82011682018060405250810190610211919061166d565b806102865750600480546040516395a8c58d60e01b81526001600160a01b03909116916395a8c58d916102479133918101611634565b602060405180830381865afa158015610262573d5f803e3d5ffd5b505050506040513d601f19601f82011682018060405250810190610286919061166d565b6102ab5760405162461bcd60e51b81526004016102a290611688565b60405180910390fd5b5f8651116102fb5760405162461bcd60e51b815260206004820152601d60248201527f43617465676f7279206e616d652063616e6e6f7420626520656d70747900000060448201526064016102a2565b81831061033f5760405162461bcd60e51b8152602060048201526012602482015271496e76616c69642074696d652072616e676560701b60448201526064016102a2565b5f8415610421575f8581526020819052604081205490036103a25760405162461bcd60e51b815260206004820152601e60248201527f506172656e742063617465676f727920646f6573206e6f74206578697374000060448201526064016102a2565b5f8581526020819052604090206007015460ff166104025760405162461bcd60e51b815260206004820152601d60248201527f506172656e742063617465676f7279206973206e6f742061637469766500000060448201526064016102a2565b5f8581526020819052604090206004015461041e9060016116e8565b90505b600380545f9182610431836116fb565b919050559050604051806101400160405280828152602001898152602001888152602001878152602001838152602001868152602001858152602001600115158152602001428152602001428152505f808381526020019081526020015f205f820151815f015560208201518160010190816104ad9190611796565b50604082015160028201906104c29082611796565b50606082015160038201556080820151600482015560a0820151600582015560c0820151600682015560e082015160078201805460ff19169115159190911790556101008201516008820155610120909101516009909101555f86900361055c57600280546001810182555f919091527f405787fa12a823e0f2b7631cc41b3ba8828b3321ca811111fa75cd3aa3bb5ace0181905561057c565b5f8681526001602081815260408320805492830181558352909120018190555b807f67cd741998e535c5595faf52cb0ec8897afeeb082dff9d6e9c8af244d4d9679389886040516105ae929190611856565b60405180910390a2979650505050505050565b5f8181526020819052604081205415806105ec57505f8281526020819052604090206007015460ff16155b156105f857505f919050565b5f828152602081905260409020600501544290811080159061062a57505f838152602081905260409020600601548111155b9392505050565b600480546040516395a8c58d60e01b81526001600160a01b03909116916395a8c58d9161066391339160029101611634565b602060405180830381865afa15801561067e573d5f803e3d5ffd5b505050506040513d601f19601f820116820180604052508101906106a2919061166d565b806107175750600480546040516395a8c58d60e01b81526001600160a01b03909116916395a8c58d916106d89133918101611634565b602060405180830381865afa1580156106f3573d5f803e3d5ffd5b505050506040513d601f19601f82011682018060405250810190610717919061166d565b6107335760405162461bcd60e51b81526004016102a290611688565b5f81815260208190526040812054900361075f5760405162461bcd60e51b81526004016102a290611877565b5f81815260208190526040902060078101805460ff191690554260099091015561078881610fc4565b60405181907fb1208bf9f52c9f3a973bc37030d64d3d76d3fa692b9d543cb3da14661a8596f1905f90a250565b60605f805b600254811015610803576107e8600282815481106107da576107da6118ae565b905f5260205f2001546105c1565b156107fb57816107f7816116fb565b9250505b6001016107ba565b505f8167ffffffffffffffff81111561081e5761081e611341565b604051908082528060200260200182016040528015610847578160200160208202803683370190505b5090505f805b6002548110156108c15761086d600282815481106107da576107da6118ae565b156108b95760028181548110610885576108856118ae565b905f5260205f2001548383815181106108a0576108a06118ae565b6020908102919091010152816108b5816116fb565b9250505b60010161084d565b50909392505050565b600480546040516395a8c58d60e01b81526001600160a01b03909116916395a8c58d916108fc91339160029101611634565b602060405180830381865afa158015610917573d5f803e3d5ffd5b505050506040513d601f19601f8201168201806040525081019061093b919061166d565b806109b05750600480546040516395a8c58d60e01b81526001600160a01b03909116916395a8c58d916109719133918101611634565b602060405180830381865afa15801561098c573d5f803e3d5ffd5b505050506040513d601f19601f820116820180604052508101906109b0919061166d565b6109cc5760405162461bcd60e51b81526004016102a290611688565b5f8681526020819052604081205490036109f85760405162461bcd60e51b81526004016102a290611877565b5f855111610a485760405162461bcd60e51b815260206004820152601d60248201527f43617465676f7279206e616d652063616e6e6f7420626520656d70747900000060448201526064016102a2565b818310610a8c5760405162461bcd60e51b8152602060048201526012602482015271496e76616c69642074696d652072616e676560701b60448201526064016102a2565b5f868152602081905260409020600101610aa68682611796565b505f868152602081905260409020600201610ac18582611796565b505f868152602081905260409020600581018490556006810183905560078101805460ff19168315151790554260099091015580610b0257610b0286610fc4565b857f79d3150b1760cd391f5006c9543aea088e4c9060f3e582ea0a948dc6649b25da8683604051610b349291906118c2565b60405180910390a2505050505050565b5f818152600160209081526040808320805482518185028101850190935280835260609493830182828015610b9657602002820191905f5260205f20905b815481526020019060010190808311610b82575b505050505090505f805b8251811015610be657610bcb838281518110610bbe57610bbe6118ae565b60200260200101516105c1565b15610bde5781610bda816116fb565b9250505b600101610ba0565b505f8167ffffffffffffffff811115610c0157610c01611341565b604051908082528060200260200182016040528015610c2a578160200160208202803683370190505b5090505f805b8451811015610ca057610c4e858281518110610bbe57610bbe6118ae565b15610c9857848181518110610c6557610c656118ae565b6020026020010151838381518110610c7f57610c7f6118ae565b602090810291909101015281610c94816116fb565b9250505b600101610c30565b509095945050505050565b60605f60015b600354811015610cf6575f8181526020819052604090205415801590610cdb5750610cdb816105c1565b15610cee5781610cea816116fb565b9250505b600101610cb1565b505f8167ffffffffffffffff811115610d1157610d11611341565b604051908082528060200260200182016040528015610d3a578160200160208202803683370190505b5090505f60015b6003548110156108c1575f8181526020819052604090205415801590610d6b5750610d6b816105c1565b15610d9c5780838381518110610d8357610d836118ae565b602090810291909101015281610d98816116fb565b9250505b600101610d41565b610df46040518061014001604052805f815260200160608152602001606081526020015f81526020015f81526020015f81526020015f81526020015f151581526020015f81526020015f81525090565b5f828152602081905260408120549003610e205760405162461bcd60e51b81526004016102a290611877565b5f828152602081815260409182902082516101408101909352805483526001810180549192840191610e5190611713565b80601f0160208091040260200160405190810160405280929190818152602001828054610e7d90611713565b8015610ec85780601f10610e9f57610100808354040283529160200191610ec8565b820191905f5260205f20905b815481529060010190602001808311610eab57829003601f168201915b50505050508152602001600282018054610ee190611713565b80601f0160208091040260200160405190810160405280929190818152602001828054610f0d90611713565b8015610f585780601f10610f2f57610100808354040283529160200191610f58565b820191905f5260205f20905b815481529060010190602001808311610f3b57829003601f168201915b505050918352505060038201546020820152600482015460408201526005820154606082015260068201546080820152600782015460ff16151560a0820152600882015460c082015260099091015460e09091015292915050565b6060610fbe8261114c565b92915050565b5f8181526001602090815260408083208054825181850281018501909352808352919290919083018282801561101757602002820191905f5260205f20905b815481526020019060010190808311611003575b505050505090505f5b8151811015611147575f8083838151811061103d5761103d6118ae565b60209081029190910181015182528101919091526040015f206007015460ff161561113f575f805f848481518110611077576110776118ae565b602002602001015181526020019081526020015f206007015f6101000a81548160ff021916908315150217905550425f808484815181106110ba576110ba6118ae565b602002602001015181526020019081526020015f20600901819055506110f88282815181106110eb576110eb6118ae565b6020026020010151610fc4565b81818151811061110a5761110a6118ae565b60200260200101517fb1208bf9f52c9f3a973bc37030d64d3d76d3fa692b9d543cb3da14661a8596f160405160405180910390a25b600101611020565b505050565b5f81815260016020908152604080832080548251818502810185019093528083526060949383018282801561119e57602002820191905f5260205f20905b81548152602001906001019080831161118a575b505050505090505f805b8251811015611216576111c6838281518110610bbe57610bbe6118ae565b1561120e57816111d5816116fb565b9250505f6111fb8483815181106111ee576111ee6118ae565b602002602001015161114c565b905080518361120a91906116e8565b9250505b6001016111a8565b505f8167ffffffffffffffff81111561123157611231611341565b60405190808252806020026020018201604052801561125a578160200160208202803683370190505b5090505f805b8451811015610ca05761127e858281518110610bbe57610bbe6118ae565b1561133957848181518110611295576112956118ae565b60200260200101518383815181106112af576112af6118ae565b6020908102919091010152816112c4816116fb565b9250505f6112dd8683815181106111ee576111ee6118ae565b90505f5b8151811015611336578181815181106112fc576112fc6118ae565b6020026020010151858581518110611316576113166118ae565b60209081029190910101528361132b816116fb565b9450506001016112e1565b50505b600101611260565b634e487b7160e01b5f52604160045260245ffd5b5f82601f830112611364575f80fd5b813567ffffffffffffffff8082111561137f5761137f611341565b604051601f8301601f19908116603f011681019082821181831017156113a7576113a7611341565b816040528381528660208588010111156113bf575f80fd5b836020870160208301375f602085830101528094505050505092915050565b5f805f805f60a086880312156113f2575f80fd5b853567ffffffffffffffff80821115611409575f80fd5b61141589838a01611355565b9650602088013591508082111561142a575f80fd5b5061143788828901611355565b959895975050505060408401359360608101359360809091013592509050565b5f60208284031215611467575f80fd5b5035919050565b602080825282518282018190525f9190848201906040850190845b818110156114a557835183529284019291840191600101611489565b50909695505050505050565b80151581146114be575f80fd5b50565b5f805f805f8060c087890312156114d6575f80fd5b86359550602087013567ffffffffffffffff808211156114f4575f80fd5b6115008a838b01611355565b96506040890135915080821115611515575f80fd5b5061152289828a01611355565b945050606087013592506080870135915060a0870135611541816114b1565b809150509295509295509295565b5f81518084525f5b8181101561157357602081850181015186830182015201611557565b505f602082860101526020601f19601f83011685010191505092915050565b60208152815160208201525f60208301516101408060408501526115ba61016085018361154f565b91506040850151601f198584030160608601526115d7838261154f565b92505060608501516080850152608085015160a085015260a085015160c085015260c085015160e085015260e08501516101006116178187018315159052565b860151610120868101919091529095015193019290925250919050565b6001600160a01b0383168152604081016005831061166057634e487b7160e01b5f52602160045260245ffd5b8260208301529392505050565b5f6020828403121561167d575f80fd5b815161062a816114b1565b6020808252602c908201527f4f6e6c792063617465676f7279206d616e616765722063616e2063616c6c207460408201526b3434b990333ab731ba34b7b760a11b606082015260800190565b634e487b7160e01b5f52601160045260245ffd5b80820180821115610fbe57610fbe6116d4565b5f6001820161170c5761170c6116d4565b5060010190565b600181811c9082168061172757607f821691505b60208210810361174557634e487b7160e01b5f52602260045260245ffd5b50919050565b601f82111561114757805f5260205f20601f840160051c810160208510156117705750805b601f840160051c820191505b8181101561178f575f815560010161177c565b5050505050565b815167ffffffffffffffff8111156117b0576117b0611341565b6117c4816117be8454611713565b8461174b565b602080601f8311600181146117f7575f84156117e05750858301515b5f19600386901b1c1916600185901b17855561184e565b5f85815260208120601f198616915b8281101561182557888601518255948401946001909101908401611806565b508582101561184257878501515f19600388901b60f8161c191681555b505060018460011b0185555b505050505050565b604081525f611868604083018561154f565b90508260208301529392505050565b60208082526017908201527f43617465676f727920646f6573206e6f74206578697374000000000000000000604082015260600190565b634e487b7160e01b5f52603260045260245ffd5b604081525f6118d4604083018561154f565b90508215156020830152939250505056fea2646970667358221220dfaae168d661a84dc7687f77afa6f07f465158f722f9d664bb84ae7c01a6338664736f6c63430008180033",
  "linkReferences": {},
  "deployedLinkReferences": {}
}