{
  "_format": "hh-sol-artifact-1",
  "contractName": "AdminManager",
  "sourceName": "contracts/AdminManager.sol",
  "abi": [
    {
      "inputs": [],
      "stateMutability": "nonpayable",
      "type": "constructor"
    },
    {
      "anonymous": false,
      "inputs": [
        {
          "indexed": true,
          "internalType": "address",
          "name": "admin",
          "type": "address"
        },
        {
          "indexed": false,
          "internalType": "enum IAdminManager.Role",
          "name": "role",
          "type": "uint8"
        },
        {
          "indexed": false,
          "internalType": "string",
          "name": "name",
          "type": "string"
        }
      ],
      "name": "AdminAdded",
      "type": "event"
    },
    {
      "anonymous": false,
      "inputs": [
        {
          "indexed": true,
          "internalType": "address",
          "name": "admin",
          "type": "address"
        }
      ],
      "name": "AdminRemoved",
      "type": "event"
    },
    {
      "anonymous": false,
      "inputs": [
        {
          "indexed": true,
          "internalType": "address",
          "name": "admin",
          "type": "address"
        },
        {
          "indexed": false,
          "internalType": "enum IAdminManager.Role",
          "name": "role",
          "type": "uint8"
        },
        {
          "indexed": false,
          "internalType": "bool",
          "name": "isActive",
          "type": "bool"
        }
      ],
      "name": "AdminUpdated",
      "type": "event"
    },
    {
      "anonymous": false,
      "inputs": [
        {
          "indexed": true,
          "internalType": "address",
          "name": "admin",
          "type": "address"
        },
        {
          "indexed": false,
          "internalType": "enum IAdminManager.Role",
          "name": "oldRole",
          "type": "uint8"
        },
        {
          "indexed": false,
          "internalType": "enum IAdminManager.Role",
          "name": "newRole",
          "type": "uint8"
        }
      ],
      "name": "RoleChanged",
      "type": "event"
    },
    {
      "inputs": [
        {
          "internalType": "address",
          "name": "_admin",
          "type": "address"
        },
        {
          "internalType": "enum IAdminManager.Role",
          "name": "_role",
          "type": "uint8"
        },
        {
          "internalType": "string",
          "name": "_name",
          "type": "string"
        }
      ],
      "name": "addAdmin",
      "outputs": [],
      "stateMutability": "nonpayable",
      "type": "function"
    },
    {
      "inputs": [
        {
          "internalType": "address",
          "name": "_admin",
          "type": "address"
        },
        {
          "internalType": "enum IAdminManager.Role",
          "name": "_newRole",
          "type": "uint8"
        }
      ],
      "name": "changeRole",
      "outputs": [],
      "stateMutability": "nonpayable",
      "type": "function"
    },
    {
      "inputs": [],
      "name": "getActiveAdmins",
      "outputs": [
        {
          "internalType": "address[]",
          "name": "",
          "type": "address[]"
        }
      ],
      "stateMutability": "view",
      "type": "function"
    },
    {
      "inputs": [
        {
          "internalType": "address",
          "name": "_admin",
          "type": "address"
        }
      ],
      "name": "getAdmin",
      "outputs": [
        {
          "components": [
            {
              "internalType": "address",
              "name": "adminAddress",
              "type": "address"
            },
            {
              "internalType": "enum IAdminManager.Role",
              "name": "role",
              "type": "uint8"
            },
            {
              "internalType": "bool",
              "name": "isActive",
              "type": "bool"
            },
            {
              "internalType": "uint256",
              "name": "createdAt",
              "type": "uint256"
            },
            {
              "internalType": "uint256",
              "name": "updatedAt",
              "type": "uint256"
            },
            {
              "internalType": "string",
              "name": "name",
              "type": "string"
            }
          ],
          "internalType": "struct IAdminManager.Admin",
          "name": "",
          "type": "tuple"
        }
      ],
      "stateMutability": "view",
      "type": "function"
    },
    {
      "inputs": [],
      "name": "getAllAdmins",
      "outputs": [
        {
          "internalType": "address[]",
          "name": "",
          "type": "address[]"
        }
      ],
      "stateMutability": "view",
      "type": "function"
    },
    {
      "inputs": [
        {
          "internalType": "address",
          "name": "_admin",
          "type": "address"
        },
        {
          "internalType": "enum IAdminManager.Role",
          "name": "_role",
          "type": "uint8"
        }
      ],
      "name": "hasRole",
      "outputs": [
        {
          "internalType": "bool",
          "name": "",
          "type": "bool"
        }
      ],
      "stateMutability": "view",
      "type": "function"
    },
    {
      "inputs": [
        {
          "internalType": "address",
          "name": "_admin",
          "type": "address"
        }
      ],
      "name": "isAdmin",
      "outputs": [
        {
          "internalType": "bool",
          "name": "",
          "type": "bool"
        }
      ],
      "stateMutability": "view",
      "type": "function"
    },
    {
      "inputs": [],
      "name": "owner",
      "outputs": [
        {
          "internalType": "address",
          "name": "",
          "type": "address"
        }
      ],
      "stateMutability": "view",
      "type": "function"
    },
    {
      "inputs": [
        {
          "internalType": "address",
          "name": "_admin",
          "type": "address"
        }
      ],
      "name": "removeAdmin",
      "outputs": [],
      "stateMutability": "nonpayable",
      "type": "function"
    },
    {
      "inputs": [
        {
          "internalType": "address",
          "name": "_admin",
          "type": "address"
        }
      ],
      "name": "requireAnyAdminRole",
      "outputs": [],
      "stateMutability": "view",
      "type": "function"
    },
    {
      "inputs": [
        {
          "internalType": "address",
          "name": "_admin",
          "type": "address"
        },
        {
          "internalType": "enum IAdminManager.Role",
          "name": "_role",
          "type": "uint8"
        }
      ],
      "name": "requireRole",
      "outputs": [],
      "stateMutability": "view",
      "type": "function"
    },
    {
      "inputs": [
        {
          "internalType": "address",
          "name": "_admin",
          "type": "address"
        },
        {
          "internalType": "enum IAdminManager.Role",
          "name": "_role",
          "type": "uint8"
        },
        {
          "internalType": "bool",
          "name": "_isActive",
          "type": "bool"
        }
      ],
      "name": "updateAdmin",
      "outputs": [],
      "stateMutability": "nonpayable",
      "type": "function"
    }
  ],
  "bytecode": "0x608060405234801562000010575f80fd5b5060028054336001600160a01b031991821681179092556040805160c081018252838152600460208083018281526001848601524260608501819052608085015284518086018652600c81526b29bcb9ba32b69027bbb732b960a11b8184015260a08501525f9687529086905292909420815181549485166001600160a01b03919091169081178255925191949093919284926001600160a81b0319161790600160a01b908490811115620000c957620000c96200016d565b021790555060408201518154901515600160a81b0260ff60a81b19909116178155606082015160018201556080820151600282015560a082015160038201906200011490826200021f565b50506002546001805480820182555f919091527fb10e2d527612073b26eecdfd717e6a320cf44b4afac2b0732d9fcbe2b7fa0cf60180546001600160a01b0319166001600160a01b0390921691909117905550620002eb565b634e487b7160e01b5f52602160045260245ffd5b634e487b7160e01b5f52604160045260245ffd5b600181811c90821680620001aa57607f821691505b602082108103620001c957634e487b7160e01b5f52602260045260245ffd5b50919050565b601f8211156200021a57805f5260205f20601f840160051c81016020851015620001f65750805b601f840160051c820191505b8181101562000217575f815560010162000202565b50505b505050565b81516001600160401b038111156200023b576200023b62000181565b62000253816200024c845462000195565b84620001cf565b602080601f83116001811462000289575f8415620002715750858301515b5f19600386901b1c1916600185901b178555620002e3565b5f85815260208120601f198616915b82811015620002b95788860151825594840194600190910190840162000298565b5085821015620002d757878501515f19600388901b60f8161c191681555b505060018460011b0185555b505050505050565b61165d80620002f95f395ff3fe608060405234801561000f575f80fd5b50600436106100b1575f3560e01c80638da5cb5b1161006e5780638da5cb5b1461014b57806395a8c58d14610176578063a83122aa14610189578063ceae7d4c1461019c578063d7380ca0146101b1578063e9523c97146101c4575f80fd5b80631785f53c146100b557806324d7806c146100ca578063322db703146100f257806337985e591461010557806364efb22b146101185780636925da9014610138575b5f80fd5b6100c86100c3366004611107565b6101cc565b005b6100dd6100d8366004611107565b61044c565b60405190151581526020015b60405180910390f35b6100c861010036600461112e565b6104b2565b6100c861011336600461118a565b6106e4565b61012b610126366004611107565b6109df565b6040516100e991906112cc565b6100c8610146366004611333565b610b38565b60025461015e906001600160a01b031681565b6040516001600160a01b0390911681526020016100e9565b6100dd610184366004611333565b610bf8565b6100c8610197366004611107565b610c6f565b6101a4610d14565b6040516100e99190611364565b6100c86101bf366004611333565b610e96565b6101a4611042565b6002546001600160a01b031633148061022e5750335f90815260208190526040902054600160a81b900460ff16801561022e57506004335f90815260208190526040902054600160a01b900460ff16600481111561022c5761022c611255565b145b6102535760405162461bcd60e51b815260040161024a906113b0565b60405180910390fd5b6001600160a01b038181165f90815260208190526040902054166102895760405162461bcd60e51b815260040161024a906113f7565b6002546001600160a01b03908116908216036102dd5760405162461bcd60e51b815260206004820152601360248201527221b0b73737ba103932b6b7bb329037bbb732b960691b604482015260640161024a565b5f5b6001548110156103d257816001600160a01b03166001828154811061030657610306611425565b5f918252602090912001546001600160a01b0316036103ca576001805461032e90829061144d565b8154811061033e5761033e611425565b5f91825260209091200154600180546001600160a01b03909216918390811061036957610369611425565b905f5260205f20015f6101000a8154816001600160a01b0302191690836001600160a01b0316021790555060018054806103a5576103a5611460565b5f8281526020902081015f1990810180546001600160a01b03191690550190556103d2565b6001016102df565b506001600160a01b0381165f90815260208190526040812080546001600160b01b031916815560018101829055600281018290559061041460038301826110a2565b50506040516001600160a01b038216907fa3b62bc36326052d97ea62d63c3d60308ed4c3ea8ac079dd8499f1e9c4f80c0f905f90a250565b6001600160a01b0381165f90815260208190526040812054600160a81b900460ff1680156104ac57505f6001600160a01b0383165f90815260208190526040902054600160a01b900460ff1660048111156104a9576104a9611255565b14155b92915050565b6002546001600160a01b03163314806105145750335f90815260208190526040902054600160a81b900460ff16801561051457506004335f90815260208190526040902054600160a01b900460ff16600481111561051257610512611255565b145b6105305760405162461bcd60e51b815260040161024a906113b0565b6001600160a01b038381165f90815260208190526040902054166105665760405162461bcd60e51b815260040161024a906113f7565b6002546001600160a01b03908116908416036105ba5760405162461bcd60e51b815260206004820152601360248201527221b0b73737ba1036b7b234b33c9037bbb732b960691b604482015260640161024a565b6001600160a01b0383165f9081526020819052604090208054600160a01b80820460ff16928592909160ff60a01b19909116908360048111156105ff576105ff611255565b02179055506001600160a01b0384165f8181526020819052604090819020805460ff60a81b1916600160a81b8615150217815542600290910155517f7e98557b0baa7580a45fc6d9b3840c5cd7fba2002a83dbe8e946e1e2344467a0906106699086908690611474565b60405180910390a282600481111561068357610683611255565b81600481111561069557610695611255565b146106de57836001600160a01b03167fb421b4740f93c210b1d4b8d33f8aa7ff19f176c56442644e658fee0929d5be1b82856040516106d5929190611491565b60405180910390a25b50505050565b6002546001600160a01b03163314806107465750335f90815260208190526040902054600160a81b900460ff16801561074657506004335f90815260208190526040902054600160a01b900460ff16600481111561074457610744611255565b145b6107625760405162461bcd60e51b815260040161024a906113b0565b6001600160a01b0383166107b05760405162461bcd60e51b8152602060048201526015602482015274496e76616c69642061646d696e206164647265737360581b604482015260640161024a565b5f8260048111156107c3576107c3611255565b036107ff5760405162461bcd60e51b815260206004820152600c60248201526b496e76616c696420726f6c6560a01b604482015260640161024a565b6001600160a01b038381165f90815260208190526040902054161561085d5760405162461bcd60e51b815260206004820152601460248201527341646d696e20616c72656164792065786973747360601b604482015260640161024a565b6040518060c00160405280846001600160a01b0316815260200183600481111561088957610889611255565b81526001602080830191909152426040808401829052606084019190915260809092018490526001600160a01b038087165f908152808352929092208351815493166001600160a01b0319841681178255918401519092909183916001600160a81b03191617600160a01b83600481111561090657610906611255565b021790555060408201518154901515600160a81b0260ff60a81b19909116178155606082015160018201556080820151600282015560a0820151600382019061094f9082611530565b50506001805480820182555f919091527fb10e2d527612073b26eecdfd717e6a320cf44b4afac2b0732d9fcbe2b7fa0cf60180546001600160a01b0319166001600160a01b0386169081179091556040519091507f2bf9628910fadcd635a222a3cf3ef32670151fd2fe7dff9624607792d8e5e5a1906109d290859085906115f0565b60405180910390a2505050565b610a176040805160c081019091525f808252602082019081526020015f151581526020015f81526020015f8152602001606081525090565b6001600160a01b038281165f9081526020818152604091829020825160c0810190935280549384168352919290830190600160a01b900460ff166004811115610a6257610a62611255565b6004811115610a7357610a73611255565b81528154600160a81b900460ff16151560208201526001820154604082015260028201546060820152600382018054608090920191610ab1906114ac565b80601f0160208091040260200160405190810160405280929190818152602001828054610add906114ac565b8015610b285780601f10610aff57610100808354040283529160200191610b28565b820191905f5260205f20905b815481529060010190602001808311610b0b57829003601f168201915b5050505050815250509050919050565b6001600160a01b0382165f90815260208190526040902054600160a81b900460ff168015610ba85750806004811115610b7357610b73611255565b6001600160a01b0383165f90815260208190526040902054600160a01b900460ff166004811115610ba657610ba6611255565b145b610bf45760405162461bcd60e51b815260206004820152601860248201527f496e73756666696369656e74207065726d697373696f6e730000000000000000604482015260640161024a565b5050565b6001600160a01b0382165f90815260208190526040812054600160a81b900460ff168015610c685750816004811115610c3357610c33611255565b6001600160a01b0384165f90815260208190526040902054600160a01b900460ff166004811115610c6657610c66611255565b145b9392505050565b6001600160a01b0381165f90815260208190526040902054600160a81b900460ff168015610ccf57505f6001600160a01b0382165f90815260208190526040902054600160a01b900460ff166004811115610ccc57610ccc611255565b14155b610d115760405162461bcd60e51b815260206004820152601360248201527210591b5a5b881c9bdb19481c995c5d5a5c9959606a1b604482015260640161024a565b50565b60605f805b600154811015610d82575f8060018381548110610d3857610d38611425565b5f9182526020808320909101546001600160a01b0316835282019290925260400190205460ff600160a81b9091041615610d7a5781610d768161160f565b9250505b600101610d19565b505f8167ffffffffffffffff811115610d9d57610d9d611176565b604051908082528060200260200182016040528015610dc6578160200160208202803683370190505b5090505f805b600154811015610e8d575f8060018381548110610deb57610deb611425565b5f9182526020808320909101546001600160a01b0316835282019290925260400190205460ff600160a81b9091041615610e855760018181548110610e3257610e32611425565b905f5260205f20015f9054906101000a90046001600160a01b0316838381518110610e5f57610e5f611425565b6001600160a01b039092166020928302919091019091015281610e818161160f565b9250505b600101610dcc565b50909392505050565b6002546001600160a01b0316331480610ef85750335f90815260208190526040902054600160a81b900460ff168015610ef857506004335f90815260208190526040902054600160a01b900460ff166004811115610ef657610ef6611255565b145b610f145760405162461bcd60e51b815260040161024a906113b0565b6001600160a01b038281165f9081526020819052604090205416610f4a5760405162461bcd60e51b815260040161024a906113f7565b6002546001600160a01b0390811690831603610fa85760405162461bcd60e51b815260206004820152601860248201527f43616e6e6f74206368616e6765206f776e657220726f6c650000000000000000604482015260640161024a565b6001600160a01b0382165f9081526020819052604090208054600160a01b80820460ff16928492909160ff60a01b1990911690836004811115610fed57610fed611255565b02179055506001600160a01b0383165f818152602081905260409081902042600290910155517fb421b4740f93c210b1d4b8d33f8aa7ff19f176c56442644e658fee0929d5be1b906109d29084908690611491565b6060600180548060200260200160405190810160405280929190818152602001828054801561109857602002820191905f5260205f20905b81546001600160a01b0316815260019091019060200180831161107a575b5050505050905090565b5080546110ae906114ac565b5f825580601f106110bd575050565b601f0160209004905f5260205f2090810190610d1191905b808211156110e8575f81556001016110d5565b5090565b80356001600160a01b0381168114611102575f80fd5b919050565b5f60208284031215611117575f80fd5b610c68826110ec565b803560058110611102575f80fd5b5f805f60608486031215611140575f80fd5b611149846110ec565b925061115760208501611120565b91506040840135801515811461116b575f80fd5b809150509250925092565b634e487b7160e01b5f52604160045260245ffd5b5f805f6060848603121561119c575f80fd5b6111a5846110ec565b92506111b360208501611120565b9150604084013567ffffffffffffffff808211156111cf575f80fd5b818601915086601f8301126111e2575f80fd5b8135818111156111f4576111f4611176565b604051601f8201601f19908116603f0116810190838211818310171561121c5761121c611176565b81604052828152896020848701011115611234575f80fd5b826020860160208301375f6020848301015280955050505050509250925092565b634e487b7160e01b5f52602160045260245ffd5b6005811061128557634e487b7160e01b5f52602160045260245ffd5b9052565b5f81518084525f5b818110156112ad57602081850181015186830182015201611291565b505f602082860101526020601f19601f83011685010191505092915050565b602080825282516001600160a01b0316828201528201515f906112f26040840182611269565b5060408301511515606083015260608301516080830152608083015160a083015260a083015160c08084015261132b60e0840182611289565b949350505050565b5f8060408385031215611344575f80fd5b61134d836110ec565b915061135b60208401611120565b90509250929050565b602080825282518282018190525f9190848201906040850190845b818110156113a45783516001600160a01b03168352928401929184019160010161137f565b50909695505050505050565b60208082526027908201527f4f6e6c792073757065722061646d696e2063616e2063616c6c207468697320666040820152663ab731ba34b7b760c91b606082015260800190565b60208082526014908201527310591b5a5b88191bd95cc81b9bdd08195e1a5cdd60621b604082015260600190565b634e487b7160e01b5f52603260045260245ffd5b634e487b7160e01b5f52601160045260245ffd5b818103818111156104ac576104ac611439565b634e487b7160e01b5f52603160045260245ffd5b604081016114828285611269565b82151560208301529392505050565b6040810161149f8285611269565b610c686020830184611269565b600181811c908216806114c057607f821691505b6020821081036114de57634e487b7160e01b5f52602260045260245ffd5b50919050565b601f82111561152b57805f5260205f20601f840160051c810160208510156115095750805b601f840160051c820191505b81811015611528575f8155600101611515565b50505b505050565b815167ffffffffffffffff81111561154a5761154a611176565b61155e8161155884546114ac565b846114e4565b602080601f831160018114611591575f841561157a5750858301515b5f19600386901b1c1916600185901b1785556115e8565b5f85815260208120601f198616915b828110156115bf578886015182559484019460019091019084016115a0565b50858210156115dc57878501515f19600388901b60f8161c191681555b505060018460011b0185555b505050505050565b6115fa8184611269565b604060208201525f61132b6040830184611289565b5f6001820161162057611620611439565b506001019056fea2646970667358221220223f89568bcedeb46ea7646a4e1665915e91956a63516c639062286052e21bd264736f6c63430008180033",
  "linkReferences": {},
  "deployedLinkReferences": {}
}