{
  "_format": "hh-sol-artifact-1",
  "contractName": "BetMarket",
  "sourceName": "contracts/BetMarket.sol",
  "abi": [
    {
      "inputs": [
        {
          "internalType": "address",
          "name": "_adminManager",
          "type": "address"
        },
        {
          "internalType": "address",
          "name": "_categoryManager",
          "type": "address"
        },
        {
          "internalType": "address",
          "name": "_usdcToken",
          "type": "address"
        },
        {
          "internalType": "address",
          "name": "_feeRecipient",
          "type": "address"
        }
      ],
      "stateMutability": "nonpayable",
      "type": "constructor"
    },
    {
      "inputs": [],
      "name": "HandlesAlreadySavedForRequestID",
      "type": "error"
    },
    {
      "inputs": [],
      "name": "InvalidKMSSignatures",
      "type": "error"
    },
    {
      "inputs": [],
      "name": "NoHandleFoundForRequestID",
      "type": "error"
    },
    {
      "anonymous": false,
      "inputs": [
        {
          "indexed": true,
          "internalType": "uint256",
          "name": "betId",
          "type": "uint256"
        },
        {
          "indexed": false,
          "internalType": "string",
          "name": "title",
          "type": "string"
        },
        {
          "indexed": false,
          "internalType": "uint256",
          "name": "categoryId",
          "type": "uint256"
        }
      ],
      "name": "BetCreated",
      "type": "event"
    },
    {
      "anonymous": false,
      "inputs": [
        {
          "indexed": true,
          "internalType": "uint256",
          "name": "betId",
          "type": "uint256"
        },
        {
          "indexed": true,
          "internalType": "address",
          "name": "user",
          "type": "address"
        },
        {
          "indexed": false,
          "internalType": "uint256",
          "name": "optionIndex",
          "type": "uint256"
        },
        {
          "indexed": false,
          "internalType": "uint256",
          "name": "shares",
          "type": "uint256"
        }
      ],
      "name": "BetPlaced",
      "type": "event"
    },
    {
      "anonymous": false,
      "inputs": [
        {
          "indexed": true,
          "internalType": "uint256",
          "name": "betId",
          "type": "uint256"
        },
        {
          "indexed": false,
          "internalType": "uint256",
          "name": "winnerIndex",
          "type": "uint256"
        }
      ],
      "name": "BetResolved",
      "type": "event"
    },
    {
      "anonymous": false,
      "inputs": [
        {
          "indexed": true,
          "internalType": "uint256",
          "name": "requestID",
          "type": "uint256"
        }
      ],
      "name": "DecryptionFulfilled",
      "type": "event"
    },
    {
      "anonymous": false,
      "inputs": [
        {
          "indexed": true,
          "internalType": "uint256",
          "name": "decryptionId",
          "type": "uint256"
        },
        {
          "indexed": false,
          "internalType": "uint256",
          "name": "winnings",
          "type": "uint256"
        }
      ],
      "name": "DecryptionProcessed",
      "type": "event"
    },
    {
      "anonymous": false,
      "inputs": [
        {
          "indexed": true,
          "internalType": "uint256",
          "name": "decryptionId",
          "type": "uint256"
        },
        {
          "indexed": true,
          "internalType": "uint256",
          "name": "betId",
          "type": "uint256"
        },
        {
          "indexed": true,
          "internalType": "address",
          "name": "user",
          "type": "address"
        }
      ],
      "name": "DecryptionRequested",
      "type": "event"
    },
    {
      "anonymous": false,
      "inputs": [
        {
          "indexed": true,
          "internalType": "uint256",
          "name": "betId",
          "type": "uint256"
        },
        {
          "indexed": true,
          "internalType": "address",
          "name": "user",
          "type": "address"
        },
        {
          "indexed": false,
          "internalType": "uint256",
          "name": "amount",
          "type": "uint256"
        }
      ],
      "name": "WinningsClaimed",
      "type": "event"
    },
    {
      "inputs": [],
      "name": "adminManager",
      "outputs": [
        {
          "internalType": "contract IAdminManager",
          "name": "",
          "type": "address"
        }
      ],
      "stateMutability": "view",
      "type": "function"
    },
    {
      "inputs": [
        {
          "internalType": "address",
          "name": "",
          "type": "address"
        }
      ],
      "name": "authorizedOracles",
      "outputs": [
        {
          "internalType": "bool",
          "name": "",
          "type": "bool"
        }
      ],
      "stateMutability": "view",
      "type": "function"
    },
    {
      "inputs": [],
      "name": "categoryManager",
      "outputs": [
        {
          "internalType": "contract ICategoryManager",
          "name": "",
          "type": "address"
        }
      ],
      "stateMutability": "view",
      "type": "function"
    },
    {
      "inputs": [
        {
          "internalType": "uint256",
          "name": "_betId",
          "type": "uint256"
        }
      ],
      "name": "claimWinnings",
      "outputs": [],
      "stateMutability": "payable",
      "type": "function"
    },
    {
      "inputs": [
        {
          "internalType": "string",
          "name": "_title",
          "type": "string"
        },
        {
          "internalType": "string",
          "name": "_description",
          "type": "string"
        },
        {
          "internalType": "string",
          "name": "_imageUrl",
          "type": "string"
        },
        {
          "internalType": "uint256",
          "name": "_categoryId",
          "type": "uint256"
        },
        {
          "internalType": "string[]",
          "name": "_optionTitles",
          "type": "string[]"
        },
        {
          "internalType": "uint256",
          "name": "_endTime",
          "type": "uint256"
        },
        {
          "internalType": "bool",
          "name": "_mustShowLive",
          "type": "bool"
        },
        {
          "internalType": "uint256",
          "name": "_liveStartTime",
          "type": "uint256"
        },
        {
          "internalType": "uint256",
          "name": "_liveEndTime",
          "type": "uint256"
        },
        {
          "internalType": "enum IBetMarket.BetType",
          "name": "_betType",
          "type": "uint8"
        },
        {
          "internalType": "uint256",
          "name": "_minBetAmount",
          "type": "uint256"
        },
        {
          "internalType": "uint256",
          "name": "_maxBetAmount",
          "type": "uint256"
        }
      ],
      "name": "createBet",
      "outputs": [
        {
          "internalType": "uint256",
          "name": "",
          "type": "uint256"
        }
      ],
      "stateMutability": "nonpayable",
      "type": "function"
    },
    {
      "inputs": [],
      "name": "emergencyWithdraw",
      "outputs": [],
      "stateMutability": "nonpayable",
      "type": "function"
    },
    {
      "inputs": [],
      "name": "feeRecipient",
      "outputs": [
        {
          "internalType": "address",
          "name": "",
          "type": "address"
        }
      ],
      "stateMutability": "view",
      "type": "function"
    },
    {
      "inputs": [],
      "name": "getActiveBets",
      "outputs": [
        {
          "internalType": "uint256[]",
          "name": "",
          "type": "uint256[]"
        }
      ],
      "stateMutability": "view",
      "type": "function"
    },
    {
      "inputs": [
        {
          "internalType": "uint256",
          "name": "_betId",
          "type": "uint256"
        }
      ],
      "name": "getBet",
      "outputs": [
        {
          "components": [
            {
              "internalType": "uint256",
              "name": "id",
              "type": "uint256"
            },
            {
              "internalType": "string",
              "name": "title",
              "type": "string"
            },
            {
              "internalType": "string",
              "name": "description",
              "type": "string"
            },
            {
              "internalType": "string",
              "name": "imageUrl",
              "type": "string"
            },
            {
              "internalType": "uint256",
              "name": "categoryId",
              "type": "uint256"
            },
            {
              "internalType": "uint256",
              "name": "endTime",
              "type": "uint256"
            },
            {
              "internalType": "bool",
              "name": "isActive",
              "type": "bool"
            },
            {
              "internalType": "bool",
              "name": "isResolved",
              "type": "bool"
            },
            {
              "internalType": "uint256",
              "name": "createdAt",
              "type": "uint256"
            },
            {
              "internalType": "uint256",
              "name": "updatedAt",
              "type": "uint256"
            },
            {
              "internalType": "bool",
              "name": "mustShowLive",
              "type": "bool"
            },
            {
              "internalType": "uint256",
              "name": "liveStartTime",
              "type": "uint256"
            },
            {
              "internalType": "uint256",
              "name": "liveEndTime",
              "type": "uint256"
            },
            {
              "internalType": "enum IBetMarket.BetType",
              "name": "betType",
              "type": "uint8"
            },
            {
              "internalType": "uint256",
              "name": "optionCount",
              "type": "uint256"
            },
            {
              "internalType": "uint256",
              "name": "minBetAmount",
              "type": "uint256"
            },
            {
              "internalType": "uint256",
              "name": "maxBetAmount",
              "type": "uint256"
            },
            {
              "internalType": "address",
              "name": "createdBy",
              "type": "address"
            },
            {
              "internalType": "uint256",
              "name": "totalParticipants",
              "type": "uint256"
            }
          ],
          "internalType": "struct IBetMarket.Bet",
          "name": "",
          "type": "tuple"
        }
      ],
      "stateMutability": "view",
      "type": "function"
    },
    {
      "inputs": [
        {
          "internalType": "uint256",
          "name": "_betId",
          "type": "uint256"
        },
        {
          "internalType": "uint256",
          "name": "_optionIndex",
          "type": "uint256"
        }
      ],
      "name": "getBetOption",
      "outputs": [
        {
          "components": [
            {
              "internalType": "string",
              "name": "title",
              "type": "string"
            },
            {
              "internalType": "euint64",
              "name": "totalAmount",
              "type": "bytes32"
            },
            {
              "internalType": "uint256",
              "name": "totalShares",
              "type": "uint256"
            },
            {
              "internalType": "bool",
              "name": "isWinner",
              "type": "bool"
            }
          ],
          "internalType": "struct IBetMarket.BetOption",
          "name": "",
          "type": "tuple"
        }
      ],
      "stateMutability": "view",
      "type": "function"
    },
    {
      "inputs": [
        {
          "internalType": "uint256",
          "name": "_categoryId",
          "type": "uint256"
        }
      ],
      "name": "getBetsByCategory",
      "outputs": [
        {
          "internalType": "uint256[]",
          "name": "",
          "type": "uint256[]"
        }
      ],
      "stateMutability": "view",
      "type": "function"
    },
    {
      "inputs": [
        {
          "internalType": "uint256",
          "name": "_decryptionId",
          "type": "uint256"
        }
      ],
      "name": "getDecryptionRequest",
      "outputs": [
        {
          "components": [
            {
              "internalType": "uint256",
              "name": "betId",
              "type": "uint256"
            },
            {
              "internalType": "address",
              "name": "user",
              "type": "address"
            },
            {
              "internalType": "uint256",
              "name": "requestId",
              "type": "uint256"
            },
            {
              "internalType": "bool",
              "name": "processed",
              "type": "bool"
            },
            {
              "internalType": "uint256",
              "name": "timestamp",
              "type": "uint256"
            }
          ],
          "internalType": "struct BetMarket.DecryptionRequest",
          "name": "",
          "type": "tuple"
        }
      ],
      "stateMutability": "view",
      "type": "function"
    },
    {
      "inputs": [
        {
          "internalType": "address",
          "name": "_user",
          "type": "address"
        }
      ],
      "name": "getUserBets",
      "outputs": [
        {
          "components": [
            {
              "internalType": "uint256",
              "name": "betId",
              "type": "uint256"
            },
            {
              "internalType": "uint256",
              "name": "optionIndex",
              "type": "uint256"
            },
            {
              "internalType": "euint64",
              "name": "amount",
              "type": "bytes32"
            },
            {
              "internalType": "uint256",
              "name": "shares",
              "type": "uint256"
            },
            {
              "internalType": "uint256",
              "name": "timestamp",
              "type": "uint256"
            },
            {
              "internalType": "bool",
              "name": "claimed",
              "type": "bool"
            }
          ],
          "internalType": "struct IBetMarket.UserBet[]",
          "name": "",
          "type": "tuple[]"
        }
      ],
      "stateMutability": "view",
      "type": "function"
    },
    {
      "inputs": [
        {
          "internalType": "uint256",
          "name": "_betId",
          "type": "uint256"
        },
        {
          "internalType": "uint256",
          "name": "_optionIndex",
          "type": "uint256"
        },
        {
          "internalType": "externalEuint64",
          "name": "_encryptedAmount",
          "type": "bytes32"
        },
        {
          "internalType": "bytes",
          "name": "_proof",
          "type": "bytes"
        }
      ],
      "name": "placeBet",
      "outputs": [],
      "stateMutability": "nonpayable",
      "type": "function"
    },
    {
      "inputs": [],
      "name": "platformFee",
      "outputs": [
        {
          "internalType": "uint256",
          "name": "",
          "type": "uint256"
        }
      ],
      "stateMutability": "view",
      "type": "function"
    },
    {
      "inputs": [],
      "name": "protocolId",
      "outputs": [
        {
          "internalType": "uint256",
          "name": "",
          "type": "uint256"
        }
      ],
      "stateMutability": "pure",
      "type": "function"
    },
    {
      "inputs": [
        {
          "internalType": "uint256",
          "name": "_betId",
          "type": "uint256"
        },
        {
          "internalType": "uint256",
          "name": "_winnerIndex",
          "type": "uint256"
        }
      ],
      "name": "resolveBet",
      "outputs": [],
      "stateMutability": "nonpayable",
      "type": "function"
    },
    {
      "inputs": [
        {
          "internalType": "address",
          "name": "_oracle",
          "type": "address"
        },
        {
          "internalType": "bool",
          "name": "_authorized",
          "type": "bool"
        }
      ],
      "name": "setAuthorizedOracle",
      "outputs": [],
      "stateMutability": "nonpayable",
      "type": "function"
    },
    {
      "inputs": [
        {
          "internalType": "address",
          "name": "_newRecipient",
          "type": "address"
        }
      ],
      "name": "updateFeeRecipient",
      "outputs": [],
      "stateMutability": "nonpayable",
      "type": "function"
    },
    {
      "inputs": [
        {
          "internalType": "uint256",
          "name": "_newFee",
          "type": "uint256"
        }
      ],
      "name": "updatePlatformFee",
      "outputs": [],
      "stateMutability": "nonpayable",
      "type": "function"
    },
    {
      "inputs": [],
      "name": "usdcToken",
      "outputs": [
        {
          "internalType": "contract IERC20",
          "name": "",
          "type": "address"
        }
      ],
      "stateMutability": "view",
      "type": "function"
    },
    {
      "inputs": [
        {
          "internalType": "uint256",
          "name": "requestId",
          "type": "uint256"
        },
        {
          "internalType": "bytes",
          "name": "cleartexts",
          "type": "bytes"
        },
        {
          "internalType": "bytes",
          "name": "decryptionProof",
          "type": "bytes"
        }
      ],
      "name": "winningsDecryptionCallback",
      "outputs": [],
      "stateMutability": "nonpayable",
      "type": "function"
    },
    {
      "inputs": [],
      "name": "withdrawFees",
      "outputs": [],
      "stateMutability": "nonpayable",
      "type": "function"
    },
    {
      "stateMutability": "payable",
      "type": "receive"
    }
  ],
  "bytecode": "0x6080604052600160065560c8600b556001600e553480156200001f575f80fd5b50604051620045643803806200456483398101604081905262000042916200024b565b60015f55620001c2620000e6604080516080810182525f808252602082018190529181018290526060810191909152506040805160808101825273687820221192c5b662b25367f70076a37bc79b6c815273848b0066793bcc60346da1f49049357399b8d595602082015273a02cda4ca3a71d7c46997716f4283aa851c2881291810191909152731364cbbf2cdf5032c47d8226a6f6fbd2afcdacac606082015290565b80517f9e7b61f58c47dc699ac88507c4f5bb9f121c03808c5676a8078fe583e464970080546001600160a01b03199081166001600160a01b039384161790915560208301517f9e7b61f58c47dc699ac88507c4f5bb9f121c03808c5676a8078fe583e46497018054831691841691909117905560408301517f9e7b61f58c47dc699ac88507c4f5bb9f121c03808c5676a8078fe583e46497028054831691841691909117905560608301517f9e7b61f58c47dc699ac88507c4f5bb9f121c03808c5676a8078fe583e46497038054909216921691909117905550565b600880546001600160a01b039586166001600160a01b0319918216179091556009805494861694821694909417909355600a805492851692841692909217909155600c8054919093169116179055335f908152600f60205260409020805460ff19166001179055620002a5565b80516001600160a01b038116811462000246575f80fd5b919050565b5f805f80608085870312156200025f575f80fd5b6200026a856200022f565b93506200027a602086016200022f565b92506200028a604086016200022f565b91506200029a606086016200022f565b905092959194509250565b6142b180620002b35f395ff3fe60806040526004361061013f575f3560e01c8063677bd9ff116100b3578063b17114d61161006d578063b17114d6146103f9578063c7a6de4d14610418578063d86ec23814610437578063da1f12ab14610456578063db2e21bc1461046a578063f160d3691461047e575f80fd5b8063677bd9ff1461030157806377a5ebbd146103145780638d4c9c371461037b578063a210b6a4146103a7578063aa0b5988146103c6578063ada73020146103e5575f80fd5b80632d56657d116101045780632d56657d146102195780634690484014610245578063476343ee14610264578063560fd1b6146102785780635cb5804a146102a457806361c992a3146102c3575f80fd5b806304ba75801461014a578063061e494f1461016b57806311eac855146101a057806326232a2e146101d757806326641bed146101fa575f80fd5b3661014657005b5f80fd5b348015610155575f80fd5b506101696101643660046137af565b61049d565b005b348015610176575f80fd5b5061018a610185366004613816565b610927565b60405161019791906138a2565b60405180910390f35b3480156101ab575f80fd5b50600a546101bf906001600160a01b031681565b6040516001600160a01b039091168152602001610197565b3480156101e2575f80fd5b506101ec600b5481565b604051908152602001610197565b348015610205575f80fd5b506101696102143660046139f7565b610c11565b348015610224575f80fd5b50610238610233366004613a96565b611124565b6040516101979190613aaf565b348015610250575f80fd5b50600c546101bf906001600160a01b031681565b34801561026f575f80fd5b506101696111d2565b348015610283575f80fd5b50610297610292366004613b28565b611354565b6040516101979190613b48565b3480156102af575f80fd5b506101696102be366004613b28565b6114e8565b3480156102ce575f80fd5b506102f16102dd366004613a96565b600f6020525f908152604090205460ff1681565b6040519015158152602001610197565b61016961030f366004613816565b61172e565b34801561031f575f80fd5b5061033361032e366004613816565b611990565b6040516101979190815181526020808301516001600160a01b031690820152604080830151908201526060808301511515908201526080918201519181019190915260a00190565b348015610386575f80fd5b5061039a610395366004613816565b611a24565b6040516101979190613b8f565b3480156103b2575f80fd5b506008546101bf906001600160a01b031681565b3480156103d1575f80fd5b506101696103e0366004613816565b611bee565b3480156103f0575f80fd5b5061039a611c94565b348015610404575f80fd5b506101ec610413366004613ca4565b611e3f565b348015610423575f80fd5b50610169610432366004613db8565b6126a9565b348015610442575f80fd5b506009546101bf906001600160a01b031681565b348015610461575f80fd5b506127116101ec565b348015610475575f80fd5b5061016961272a565b348015610489575f80fd5b50610169610498366004613a96565b6127b8565b335f908152600f602052604090205460ff1661050c5760405162461bcd60e51b8152602060048201526024808201527f4f6e6c7920617574686f72697a6564206f7261636c652063616e2063616c6c206044820152637468697360e01b60648201526084015b60405180910390fd5b5f8060015b600e54811015610564575f818152600d60205260409020600201548614801561054b57505f818152600d602052604090206003015460ff16155b1561055c5780925060019150610564565b600101610511565b50806105be5760405162461bcd60e51b8152602060048201526024808201527f496e76616c6964206f7220616c72656164792070726f636573736564207265716044820152631d595cdd60e21b6064820152608401610503565b6105c9858585612888565b5f828152600d60209081526040822060038101805460ff191660019081179091558154908201548851929491936001600160a01b039091169261061391908a018101908a01613ded565b90505f6106218484846128f1565b905080156108e1575f8481526004602090815260408083206001600160a01b03871684529091528120905b81548110156106ef575f868152600260205260409020825483908390811061067657610676613e8a565b905f5260205f209060060201600101548154811061069657610696613e8a565b5f91825260209091206003600490920201015460ff16156106e75760018282815481106106c5576106c5613e8a565b5f9182526020909120600690910201600501805460ff19169115159190911790555b60010161064c565b505f612710600b54846107029190613eb2565b61070c9190613ec9565b90505f6107198285613ee8565b600a5460405163a9059cbb60e01b81526001600160a01b0389811660048301526024820184905292935091169063a9059cbb906044016020604051808303815f875af115801561076b573d5f803e3d5ffd5b505050506040513d601f19601f8201168201806040525081019061078f9190613efb565b6107db5760405162461bcd60e51b815260206004820152601860248201527f57696e6e696e6773207472616e73666572206661696c656400000000000000006044820152606401610503565b811561089957600a54600c5460405163a9059cbb60e01b81526001600160a01b0391821660048201526024810185905291169063a9059cbb906044016020604051808303815f875af1158015610833573d5f803e3d5ffd5b505050506040513d601f19601f820116820180604052508101906108579190613efb565b6108995760405162461bcd60e51b8152602060048201526013602482015272119959481d1c985b9cd9995c8819985a5b1959606a1b6044820152606401610503565b856001600160a01b0316877f5380cf6fe903b40c6d5a9e0dfbca2f3a423f0a21520b4d5947ed5169bdba946d836040516108d591815260200190565b60405180910390a35050505b867fededfbab5c5a25df30673b65c6c03ce46b36af175edb39864a555e967c48ff768260405161091391815260200190565b60405180910390a250505050505050505050565b61092f61360a565b5f8281526001602052604081205483910361095c5760405162461bcd60e51b815260040161050390613f16565b5f83815260016020818152604092839020835161026081019094528054845291820180549184019161098d90613f42565b80601f01602080910402602001604051908101604052809291908181526020018280546109b990613f42565b8015610a045780601f106109db57610100808354040283529160200191610a04565b820191905f5260205f20905b8154815290600101906020018083116109e757829003601f168201915b50505050508152602001600282018054610a1d90613f42565b80601f0160208091040260200160405190810160405280929190818152602001828054610a4990613f42565b8015610a945780601f10610a6b57610100808354040283529160200191610a94565b820191905f5260205f20905b815481529060010190602001808311610a7757829003601f168201915b50505050508152602001600382018054610aad90613f42565b80601f0160208091040260200160405190810160405280929190818152602001828054610ad990613f42565b8015610b245780601f10610afb57610100808354040283529160200191610b24565b820191905f5260205f20905b815481529060010190602001808311610b0757829003601f168201915b50505091835250506004820154602082015260058201546040820152600682015460ff8082161515606084015261010091829004811615156080840152600784015460a0840152600884015460c084015260098401548116151560e0840152600a84015491830191909152600b830154610120830152600c83015461014090920191166002811115610bb857610bb861387a565b6002811115610bc957610bc961387a565b8152600d8201546020820152600e8201546040820152600f820154606082015260108201546001600160a01b0316608082015260119091015460a09091015291505b50919050565b610c19612c01565b5f85815260016020526040812054869103610c465760405162461bcd60e51b815260040161050390613f16565b5f86815260016020526040902060060154869060ff16610c9c5760405162461bcd60e51b8152602060048201526011602482015270426574206973206e6f742061637469766560781b6044820152606401610503565b5f818152600160205260409020600501544210610ceb5760405162461bcd60e51b815260206004820152600d60248201526c10995d081a185cc8195b991959609a1b6044820152606401610503565b5f81815260016020526040902060060154610100900460ff1615610d4b5760405162461bcd60e51b815260206004820152601760248201527610995d081a5cc8185b1c9958591e481c995cdbdb1d9959604a1b6044820152606401610503565b5f878152600260205260409020548610610d9e5760405162461bcd60e51b8152602060048201526014602482015273092dcecc2d8d2c840dee0e8d2dedc40d2dcc8caf60631b6044820152606401610503565b5f610dde8686868080601f0160208091040260200160405190810160405280939291908181526020018383808284375f92019190915250612c5892505050565b5f8981526002602052604081208054929350909189908110610e0257610e02613e8a565b905f5260205f209060040201600101549050610e1e8183612c6e565b5f8a815260026020526040902080548a908110610e3d57610e3d613e8a565b905f5260205f20906004020160010181905550600160025f8b81526020019081526020015f208981548110610e7457610e74613e8a565b905f5260205f2090600402016002015f828254610e919190613f74565b925050819055505f6040518060c001604052808b81526020018a8152602001848152602001600181526020014281526020015f1515815250905060035f336001600160a01b03166001600160a01b031681526020019081526020015f2081908060018154018082558091505060019003905f5260205f2090600602015f909190919091505f820151815f01556020820151816001015560408201518160020155606082015181600301556080820151816004015560a0820151816005015f6101000a81548160ff021916908315150217905550505060045f8b81526020019081526020015f205f336001600160a01b03166001600160a01b031681526020019081526020015f2081908060018154018082558091505060019003905f5260205f2090600602015f909190919091505f820151815f01556020820151816001015560408201518160020155606082015181600301556080820151816004015560a0820151816005015f6101000a81548160ff021916908315150217905550505060045f8b81526020019081526020015f205f336001600160a01b03166001600160a01b031681526020019081526020015f2080549050600103611083575f8a815260016020526040812060110180549161106983613f87565b90915550505f8a8152600160205260409020426008909101555b61108c83612c9c565b506110978333612cab565b505f8a815260026020526040902080546110d191908b9081106110bc576110bc613e8a565b905f5260205f20906004020160010154612c9c565b50604080518a81526001602082015233918c917f1b8a9031cb9351278d70a994f81536e9e08c91162e64f92b2fe4766fb7a891b4910160405180910390a3505050505061111d60015f55565b5050505050565b6001600160a01b0381165f908152600360209081526040808320805482518185028101850190935280835260609492939192909184015b828210156111c7575f8481526020908190206040805160c08101825260068602909201805483526001808201548486015260028201549284019290925260038101546060840152600481015460808401526005015460ff16151560a0830152908352909201910161115b565b505050509050919050565b600854604051635418915560e11b81523360048201526001600160a01b039091169063a83122aa906024015f6040518083038186803b158015611213575f80fd5b505afa158015611225573d5f803e3d5ffd5b5050600a546040516370a0823160e01b81523060048201525f93506001600160a01b0390911691506370a0823190602401602060405180830381865afa158015611271573d5f803e3d5ffd5b505050506040513d601f19601f820116820180604052508101906112959190613f9f565b600a54600c5460405163a9059cbb60e01b81526001600160a01b03918216600482015260248101849052929350169063a9059cbb906044016020604051808303815f875af11580156112e9573d5f803e3d5ffd5b505050506040513d601f19601f8201168201806040525081019061130d9190613efb565b6113515760405162461bcd60e51b8152602060048201526015602482015274119959481dda5d1a191c985dd85b0819985a5b1959605a1b6044820152606401610503565b50565b6040805160808101825260608082525f602083018190529282018390528101919091525f838152600160205260408120548491036113a45760405162461bcd60e51b815260040161050390613f16565b5f8481526002602052604090205483106113f75760405162461bcd60e51b8152602060048201526014602482015273092dcecc2d8d2c840dee0e8d2dedc40d2dcc8caf60631b6044820152606401610503565b5f84815260026020526040902080548490811061141657611416613e8a565b905f5260205f2090600402016040518060800160405290815f8201805461143c90613f42565b80601f016020809104026020016040519081016040528092919081815260200182805461146890613f42565b80156114b35780601f1061148a576101008083540402835291602001916114b3565b820191905f5260205f20905b81548152906001019060200180831161149657829003601f168201915b5050509183525050600182015460208201526002820154604082015260039091015460ff161515606090910152949350505050565b600854604051635418915560e11b81523360048201526001600160a01b039091169063a83122aa906024015f6040518083038186803b158015611529575f80fd5b505afa15801561153b573d5f803e3d5ffd5b5050505f83815260016020526040812054849250900361156d5760405162461bcd60e51b815260040161050390613f16565b5f83815260016020526040902060060154610100900460ff16156115cd5760405162461bcd60e51b815260206004820152601760248201527610995d081a5cc8185b1c9958591e481c995cdbdb1d9959604a1b6044820152606401610503565b5f838152600160205260409020600501544210156116255760405162461bcd60e51b815260206004820152601560248201527410995d081a185cc81b9bdd08195b991959081e595d605a1b6044820152606401610503565b5f8381526002602052604090205482106116785760405162461bcd60e51b8152602060048201526014602482015273092dcecc2d8d2c840eed2dcdccae440d2dcc8caf60631b6044820152606401610503565b5f8381526002602052604090208054600191908490811061169b5761169b613e8a565b5f9182526020808320600360049093020191909101805493151560ff199094169390931790925584815260019091526040902060068101805461ff001916610100179055426008909101556116ef83612cbd565b827f6f014aa1fc0c12b56c099fa8727bbf780907046b16c01199f4092f5c721187ab8360405161172191815260200190565b60405180910390a2505050565b611736612c01565b5f818152600160205260408120548291036117635760405162461bcd60e51b815260040161050390613f16565b5f82815260016020526040902060060154610100900460ff166117c85760405162461bcd60e51b815260206004820152601760248201527f426574206973206e6f74207265736f6c766564207965740000000000000000006044820152606401610503565b66470de4df82000034101561182b5760405162461bcd60e51b815260206004820152602360248201527f496e73756666696369656e74206761732066656520666f72206465637279707460448201526234b7b760e91b6064820152608401610503565b5f8281526004602090815260408083203384529091529020805461188a5760405162461bcd60e51b81526020600482015260166024820152752737903132ba39903337bab732103337b9103ab9b2b960511b6044820152606401610503565b5f805b8254811015611934578281815481106118a8576118a8613e8a565b5f91825260209091206005600690920201015460ff1615801561191e57505f85815260026020526040902083548490839081106118e7576118e7613e8a565b905f5260205f209060060201600101548154811061190757611907613e8a565b5f91825260209091206003600490920201015460ff165b1561192c5760019150611934565b60010161188d565b508061197a5760405162461bcd60e51b81526020600482015260156024820152744e6f20756e636c61696d65642077696e6e696e677360581b6044820152606401610503565b6119848433612d66565b50505061135160015f55565b6119c86040518060a001604052805f81526020015f6001600160a01b031681526020015f81526020015f151581526020015f81525090565b505f908152600d6020908152604091829020825160a0810184528154815260018201546001600160a01b031692810192909252600281015492820192909252600382015460ff1615156060820152600490910154608082015290565b5f818152600560209081526040808320805482518185028101850190935280835260609493830182828015611a7657602002820191905f5260205f20905b815481526020019060010190808311611a62575b505050505090505f805b8251811015611afe575f838281518110611a9c57611a9c613e8a565b6020908102919091018101515f818152600190925260409091206006015490915060ff168015611ae257505f81815260016020526040902060060154610100900460ff16155b15611af55782611af181613f87565b9350505b50600101611a80565b505f816001600160401b03811115611b1857611b18613700565b604051908082528060200260200182016040528015611b41578160200160208202803683370190505b5090505f805b8451811015611be3575f858281518110611b6357611b63613e8a565b6020908102919091018101515f818152600190925260409091206006015490915060ff168015611ba957505f81815260016020526040902060060154610100900460ff16155b15611bda5780848481518110611bc157611bc1613e8a565b602090810291909101015282611bd681613f87565b9350505b50600101611b47565b509095945050505050565b600854604051635418915560e11b81523360048201526001600160a01b039091169063a83122aa906024015f6040518083038186803b158015611c2f575f80fd5b505afa158015611c41573d5f803e3d5ffd5b505050506103e8811115611c8f5760405162461bcd60e51b81526020600482015260156024820152744665652063616e6e6f74206578636565642031302560581b6044820152606401610503565b600b55565b60605f805b600754811015611d34575f60078281548110611cb757611cb7613e8a565b5f918252602080832090910154808352600190915260409091206006015490915060ff168015611cf657505f8181526001602052604090206005015442105b8015611d1857505f81815260016020526040902060060154610100900460ff16155b15611d2b5782611d2781613f87565b9350505b50600101611c99565b505f816001600160401b03811115611d4e57611d4e613700565b604051908082528060200260200182016040528015611d77578160200160208202803683370190505b5090505f805b600754811015611e36575f60078281548110611d9b57611d9b613e8a565b5f918252602080832090910154808352600190915260409091206006015490915060ff168015611dda57505f8181526001602052604090206005015442105b8015611dfc57505f81815260016020526040902060060154610100900460ff16155b15611e2d5780848481518110611e1457611e14613e8a565b602090810291909101015282611e2981613f87565b9350505b50600101611d7d565b50909392505050565b6008546040516395a8c58d60e01b81525f916001600160a01b0316906395a8c58d90611e72903390600390600401613fb6565b602060405180830381865afa158015611e8d573d5f803e3d5ffd5b505050506040513d601f19601f82011682018060405250810190611eb19190613efb565b80611f2857506008546040516395a8c58d60e01b81526001600160a01b03909116906395a8c58d90611ee99033906004908101613fb6565b602060405180830381865afa158015611f04573d5f803e3d5ffd5b505050506040513d601f19601f82011682018060405250810190611f289190613efb565b611f845760405162461bcd60e51b815260206004820152602760248201527f4f6e6c7920626574206d616e616765722063616e2063616c6c207468697320666044820152663ab731ba34b7b760c91b6064820152608401610503565b5f8d5111611fd45760405162461bcd60e51b815260206004820152601960248201527f426574207469746c652063616e6e6f7420626520656d707479000000000000006044820152606401610503565b5f8c51116120245760405162461bcd60e51b815260206004820152601f60248201527f426574206465736372697074696f6e2063616e6e6f7420626520656d707479006044820152606401610503565b6002895110156120765760405162461bcd60e51b815260206004820152601b60248201527f4174206c656173742032206f7074696f6e7320726571756972656400000000006044820152606401610503565b4288116120c55760405162461bcd60e51b815260206004820152601e60248201527f456e642074696d65206d75737420626520696e207468652066757475726500006044820152606401610503565b60028460028111156120d9576120d961387a565b60ff16111561211d5760405162461bcd60e51b815260206004820152601060248201526f496e76616c696420626574207479706560801b6044820152606401610503565b5f831161217a5760405162461bcd60e51b815260206004820152602560248201527f4d696e2062657420616d6f756e74206d75737420626520677265617465722074604482015264068616e20360dc1b6064820152608401610503565b828210156121db5760405162461bcd60e51b815260206004820152602860248201527f4d61782062657420616d6f756e74206d757374206265203e3d206d696e2062656044820152671d08185b5bdd5b9d60c21b6064820152608401610503565b6009546040516361e778bb60e01b8152600481018c90526001600160a01b03909116906361e778bb90602401602060405180830381865afa158015612222573d5f803e3d5ffd5b505050506040513d601f19601f820116820180604052508101906122469190613efb565b61228b5760405162461bcd60e51b815260206004820152601660248201527543617465676f7279206973206e6f742061637469766560501b6044820152606401610503565b8615612341578486106122e05760405162461bcd60e51b815260206004820152601760248201527f496e76616c6964206c6976652074696d652072616e67650000000000000000006044820152606401610503565b878511156123415760405162461bcd60e51b815260206004820152602860248201527f4c69766520656e642074696d652063616e6e6f74206578636565642062657420604482015267656e642074696d6560c01b6064820152608401610503565b600680545f918261235183613f87565b9190505590506040518061026001604052808281526020018f81526020018e81526020018d81526020018c81526020018a81526020016001151581526020015f1515815260200142815260200142815260200189151581526020018881526020018781526020018660028111156123ca576123ca61387a565b81528b516020808301919091526040808301889052606083018790523360808401525f60a09093018390528483526001808352922083518155908301519091820190612416908261402c565b506040820151600282019061242b908261402c565b5060608201516003820190612440908261402c565b506080820151600482015560a0820151600582015560c082015160068201805460e085015161ffff1990911692151561ff0019169290921761010092151583021790558201516007820155610120820151600882015561014082015160098201805460ff19908116921515929092179055610160830151600a830155610180830151600b8301556101a0830151600c83018054919290911660018360028111156124ec576124ec61387a565b02179055506101c0820151600d8201556101e0820151600e820155610200820151600f8201556102208201516010820180546001600160a01b0319166001600160a01b03909216919091179055610240909101516011909101555f5b8a518110156126025760025f8381526020019081526020015f2060405180608001604052808d848151811061257f5761257f613e8a565b602002602001015181526020016125955f612faf565b81525f6020808301829052604090920181905283546001810185559381522081519192600402019081906125c9908261402c565b506020820151600182810191909155604083015160028301556060909201516003909101805460ff191691151591909117905501612548565b5060055f8c81526020019081526020015f2081908060018154018082558091505060019003905f5260205f20015f9091909190915055600781908060018154018082558091505060019003905f5260205f20015f9091909190915055807fcdebbaf6a57d20bf7a10d7fc20531a1574c22867908778f597d2c326718cd4578f8d6040516126909291906140eb565b60405180910390a29d9c50505050505050505050505050565b600854604051635418915560e11b81523360048201526001600160a01b039091169063a83122aa906024015f6040518083038186803b1580156126ea575f80fd5b505afa1580156126fc573d5f803e3d5ffd5b505050506001600160a01b03919091165f908152600f60205260409020805460ff1916911515919091179055565b600854604051635418915560e11b81523360048201526001600160a01b039091169063a83122aa906024015f6040518083038186803b15801561276b575f80fd5b505afa15801561277d573d5f803e3d5ffd5b5050600c546040516001600160a01b0390911692504780156108fc029250905f818181858888f19350505050158015611351573d5f803e3d5ffd5b600854604051635418915560e11b81523360048201526001600160a01b039091169063a83122aa906024015f6040518083038186803b1580156127f9575f80fd5b505afa15801561280b573d5f803e3d5ffd5b5050506001600160a01b03821690506128665760405162461bcd60e51b815260206004820152601960248201527f496e76616c696420726563697069656e742061646472657373000000000000006044820152606401610503565b600c80546001600160a01b0319166001600160a01b0392909216919091179055565b5f61289284612fc4565b90505f6128a0828585613095565b9050806128c05760405163cf6c44e960e01b815260040160405180910390fd5b60405185907f1af0453083661051f6e56e5c070792320652e612154bf9af8637bb1e7655b99d905f90a25050505050565b5f8381526004602090815260408083206001600160a01b03861684528252808320868452600290925282205482816001600160401b0381111561293657612936613700565b60405190808252806020026020018201604052801561295f578160200160208202803683370190505b5083549091505f906001600160401b0381111561297e5761297e613700565b6040519080825280602002602001820160405280156129a7578160200160208202803683370190505b5090505f5b83811015612a00578681815181106129c6576129c6613e8a565b60200260200101518382815181106129e0576129e0613e8a565b6001600160401b03909216602092830291909101909101526001016129ac565b505f5b8454811015612a615786612a178286613f74565b81518110612a2757612a27613e8a565b6020026020010151828281518110612a4157612a41613e8a565b6001600160401b0390921660209283029190910190910152600101612a03565b505f8080805b86811015612b0c57858181518110612a8157612a81613e8a565b60200260200101516001600160401b031684612a9d9190613f74565b5f8d815260026020526040902080549195509082908110612ac057612ac0613e8a565b5f91825260209091206003600490920201015460ff1615612b0457858181518110612aed57612aed613e8a565b60200260200101516001600160401b031692508091505b600101612a67565b50815f03612b23575f975050505050505050612bfa565b5f805b8854811015612bc25782898281548110612b4257612b42613e8a565b905f5260205f20906006020160010154148015612b845750888181548110612b6c57612b6c613e8a565b5f91825260209091206005600690920201015460ff16155b15612bba57858181518110612b9b57612b9b613e8a565b60200260200101516001600160401b031682612bb79190613f74565b91505b600101612b26565b50805f03612bda575f98505050505050505050612bfa565b82612be58583613eb2565b612bef9190613ec9565b985050505050505050505b9392505050565b60025f5403612c525760405162461bcd60e51b815260206004820152601f60248201527f5265656e7472616e637947756172643a207265656e7472616e742063616c6c006044820152606401610503565b60025f55565b5f612c658383600561316e565b90505b92915050565b5f82612c8057612c7d5f612faf565b92505b81612c9157612c8e5f612faf565b91505b612c6583835f61327b565b5f612ca78230613330565b5090565b5f612cb68383613330565b5090919050565b5f5b600754811015612d62578160078281548110612cdd57612cdd613e8a565b905f5260205f20015403612d5a5760078054612cfb90600190613ee8565b81548110612d0b57612d0b613e8a565b905f5260205f20015460078281548110612d2757612d27613e8a565b5f918252602090912001556007805480612d4357612d4361410c565b600190038181905f5260205f20015f905590555050565b600101612cbf565b5050565b5f8281526004602090815260408083206001600160a01b038516845282528083208054868552600290935290832054909291612da191613f74565b90505f816001600160401b03811115612dbc57612dbc613700565b604051908082528060200260200182016040528015612de5578160200160208202803683370190505b5090505f5b5f86815260026020526040902054811015612e5b575f8681526002602052604090208054612e36919083908110612e2357612e23613e8a565b905f5260205f2090600402016001015490565b828281518110612e4857612e48613e8a565b6020908102919091010152600101612dea565b505f5b8354811015612ecd57612e8f848281548110612e7c57612e7c613e8a565b905f5260205f2090600602016002015490565b5f878152600260205260409020548390612eaa908490613f74565b81518110612eba57612eba613e8a565b6020908102919091010152600101612e5e565b50600e80545f9182612ede83613f87565b9091555090505f612ef583620974eb60e71b6133a6565b6040805160a0810182528981526001600160a01b0389811660208084018281528486018781525f6060870181815242608089019081528c8352600d9095528882209751885592516001880180546001600160a01b03191691909716179095555160028601555160038501805460ff191691151591909117905551600490930192909255915192935091899185917f389e206af32a0f894aae2a19ffb367b9bf8f7e785470c496e3648822c9949dad9190a450505050505050565b5f612c68826001600160401b031660056133b2565b5f8181527f878245876662ba28a480c5ea71726db859fb50222b0a3d7cbbc21cfa336faf0160205260408120546060917f878245876662ba28a480c5ea71726db859fb50222b0a3d7cbbc21cfa336faf009190036130355760405163d66ca67560e01b815260040160405180910390fd5b5f8381526001820160209081526040918290208054835181840281018401909452808452909183018282801561308857602002820191905f5260205f20905b815481526020019060010190808311613074575b5050505050915050919050565b5f80835160206130a59190613f74565b6130b0906020613f74565b90505f84826040516020016130c6929190614120565b60405160208183030381529060405290505f6130ec5f8051602061425c83398151915290565b60038101546040516378542ead60e01b81529192506001600160a01b0316906378542ead90613123908a9086908a9060040161417b565b6020604051808303815f875af115801561313f573d5f803e3d5ffd5b505050506040513d601f19601f820116820180604052508101906131639190613efb565b979650505050505050565b7f9e7b61f58c47dc699ac88507c4f5bb9f121c03808c5676a8078fe583e46497015460405163196d0b9b60e01b81525f915f8051602061425c833981519152916001600160a01b039091169063196d0b9b906131d49088903390899089906004016141c3565b6020604051808303815f875af11580156131f0573d5f803e3d5ffd5b505050506040513d601f19601f820116820180604052508101906132149190613f9f565b8154604051630f8e573b60e21b8152600481018390523360248201529193506001600160a01b031690633e395cec906044015f604051808303815f87803b15801561325d575f80fd5b505af115801561326f573d5f803e3d5ffd5b50505050509392505050565b5f80821561328e5750600160f81b613291565b505f5b5f5f8051602061425c833981519152600181015460405163022f65e760e31b815260048101899052602481018890526001600160f81b0319851660448201529192506001600160a01b03169063117b2f38906064016020604051808303815f875af1158015613302573d5f803e3d5ffd5b505050506040513d601f19601f820116820180604052508101906133269190613f9f565b9695505050505050565b5f5f8051602061425c8339815191528054604051635ca4b5b160e11b8152600481018690526001600160a01b03858116602483015292935091169063b9496b62906044015f604051808303815f87803b15801561338b575f80fd5b505af115801561339d573d5f803e3d5ffd5b50505050505050565b5f612c6583835f61345c565b7f9e7b61f58c47dc699ac88507c4f5bb9f121c03808c5676a8078fe583e464970154604051639cd07acb60e01b81525f915f8051602061425c833981519152916001600160a01b0390911690639cd07acb906134149087908790600401614204565b6020604051808303815f875af1158015613430573d5f803e3d5ffd5b505050506040513d601f19601f820116820180604052508101906134549190613f9f565b949350505050565b7f878245876662ba28a480c5ea71726db859fb50222b0a3d7cbbc21cfa336faf0080545f8051602061425c8339815191528054604051637d6e912360e11b81529293926001600160a01b039091169063fadd2246906134bf908990600401614218565b5f604051808303815f87803b1580156134d6575f80fd5b505af11580156134e8573d5f803e3d5ffd5b5050506002820154604051633263b83b60e01b81526001600160a01b039091169150633263b83b9086906135249087908b908b9060040161422a565b5f604051808303818588803b15801561353b575f80fd5b505af115801561354d573d5f803e3d5ffd5b505050505061355c8387613577565b8154825f61356983613f87565b919050555050509392505050565b5f8281527f878245876662ba28a480c5ea71726db859fb50222b0a3d7cbbc21cfa336faf0160205260409020547f878245876662ba28a480c5ea71726db859fb50222b0a3d7cbbc21cfa336faf0090156135e457604051633f06d22b60e01b815260040160405180910390fd5b5f83815260018201602090815260409091208351613604928501906136ac565b50505050565b6040518061026001604052805f81526020016060815260200160608152602001606081526020015f81526020015f81526020015f151581526020015f151581526020015f81526020015f81526020015f151581526020015f81526020015f81526020015f600281111561367f5761367f61387a565b81526020015f81526020015f81526020015f81526020015f6001600160a01b031681526020015f81525090565b828054828255905f5260205f209081019282156136e5579160200282015b828111156136e55782518255916020019190600101906136ca565b50612ca79291505b80821115612ca7575f81556001016136ed565b634e487b7160e01b5f52604160045260245ffd5b604051601f8201601f191681016001600160401b038111828210171561373c5761373c613700565b604052919050565b5f82601f830112613753575f80fd5b81356001600160401b0381111561376c5761376c613700565b61377f601f8201601f1916602001613714565b818152846020838601011115613793575f80fd5b816020850160208301375f918101602001919091529392505050565b5f805f606084860312156137c1575f80fd5b8335925060208401356001600160401b03808211156137de575f80fd5b6137ea87838801613744565b935060408601359150808211156137ff575f80fd5b5061380c86828701613744565b9150509250925092565b5f60208284031215613826575f80fd5b5035919050565b5f5b8381101561384757818101518382015260200161382f565b50505f910152565b5f815180845261386681602086016020860161382d565b601f01601f19169290920160200192915050565b634e487b7160e01b5f52602160045260245ffd5b6003811061389e5761389e61387a565b9052565b60208152815160208201525f60208301516102608060408501526138ca61028085018361384f565b91506040850151601f19808685030160608701526138e8848361384f565b9350606087015191508086850301608087015250613906838261384f565b925050608085015160a085015260a085015160c085015260c085015161393060e086018215159052565b5060e08501516101006139468187018315159052565b860151610120868101919091528601516101408087019190915286015190506101606139758187018315159052565b860151610180868101919091528601516101a08087019190915286015190506101c06139a38187018361388e565b8601516101e086810191909152860151610200808701919091528601516102208087019190915286015190506102406139e6818701836001600160a01b03169052565b959095015193019290925250919050565b5f805f805f60808688031215613a0b575f80fd5b85359450602086013593506040860135925060608601356001600160401b0380821115613a36575f80fd5b818801915088601f830112613a49575f80fd5b813581811115613a57575f80fd5b896020828501011115613a68575f80fd5b9699959850939650602001949392505050565b80356001600160a01b0381168114613a91575f80fd5b919050565b5f60208284031215613aa6575f80fd5b612c6582613a7b565b602080825282518282018190525f919060409081850190868401855b82811015613b1b5781518051855286810151878601528581015186860152606080820151908601526080808201519086015260a09081015115159085015260c09093019290850190600101613acb565b5091979650505050505050565b5f8060408385031215613b39575f80fd5b50508035926020909101359150565b602081525f825160806020840152613b6360a084018261384f565b905060208401516040840152604084015160608401526060840151151560808401528091505092915050565b602080825282518282018190525f9190848201906040850190845b81811015613bc657835183529284019291840191600101613baa565b50909695505050505050565b5f6001600160401b03821115613bea57613bea613700565b5060051b60200190565b5f82601f830112613c03575f80fd5b81356020613c18613c1383613bd2565b613714565b82815260059290921b84018101918181019086841115613c36575f80fd5b8286015b84811015613c735780356001600160401b03811115613c57575f80fd5b613c658986838b0101613744565b845250918301918301613c3a565b509695505050505050565b8015158114611351575f80fd5b8035613a9181613c7e565b803560038110613a91575f80fd5b5f805f805f805f805f805f806101808d8f031215613cc0575f80fd5b6001600160401b038d351115613cd4575f80fd5b613ce18e8e358f01613744565b9b506001600160401b0360208e01351115613cfa575f80fd5b613d0a8e60208f01358f01613744565b9a506001600160401b0360408e01351115613d23575f80fd5b613d338e60408f01358f01613744565b995060608d013598506001600160401b0360808e01351115613d53575f80fd5b613d638e60808f01358f01613bf4565b975060a08d01359650613d7860c08e01613c8b565b955060e08d013594506101008d01359350613d966101208e01613c96565b92506101408d013591506101608d013590509295989b509295989b509295989b565b5f8060408385031215613dc9575f80fd5b613dd283613a7b565b91506020830135613de281613c7e565b809150509250929050565b5f6020808385031215613dfe575f80fd5b82516001600160401b0380821115613e14575f80fd5b818501915085601f830112613e27575f80fd5b8151613e35613c1382613bd2565b81815260059190911b83018401908481019088831115613e53575f80fd5b938501935b82851015613e7e5784518481168114613e6f575f80fd5b82529385019390850190613e58565b98975050505050505050565b634e487b7160e01b5f52603260045260245ffd5b634e487b7160e01b5f52601160045260245ffd5b8082028115828204841417612c6857612c68613e9e565b5f82613ee357634e487b7160e01b5f52601260045260245ffd5b500490565b81810381811115612c6857612c68613e9e565b5f60208284031215613f0b575f80fd5b8151612bfa81613c7e565b60208082526012908201527110995d08191bd95cc81b9bdd08195e1a5cdd60721b604082015260600190565b600181811c90821680613f5657607f821691505b602082108103610c0b57634e487b7160e01b5f52602260045260245ffd5b80820180821115612c6857612c68613e9e565b5f60018201613f9857613f98613e9e565b5060010190565b5f60208284031215613faf575f80fd5b5051919050565b6001600160a01b03831681526040810160058310613fd657613fd661387a565b8260208301529392505050565b601f82111561402757805f5260205f20601f840160051c810160208510156140085750805b601f840160051c820191505b8181101561111d575f8155600101614014565b505050565b81516001600160401b0381111561404557614045613700565b614059816140538454613f42565b84613fe3565b602080601f83116001811461408c575f84156140755750858301515b5f19600386901b1c1916600185901b1785556140e3565b5f85815260208120601f198616915b828110156140ba5788860151825594840194600190910190840161409b565b50858210156140d757878501515f19600388901b60f8161c191681555b505060018460011b0185555b505050505050565b604081525f6140fd604083018561384f565b90508260208301529392505050565b634e487b7160e01b5f52603160045260245ffd5b5f835161413181846020880161382d565b9190910191825250602001919050565b5f815180845260208085019450602084015f5b8381101561417057815187529582019590820190600101614154565b509495945050505050565b606081525f61418d6060830186614141565b828103602084015261419f818661384f565b90508281036040840152613326818561384f565b6054811061389e5761389e61387a565b8481526001600160a01b03841660208201526080604082018190525f906141ec9083018561384f565b90506141fb60608301846141b3565b95945050505050565b82815260408101612bfa60208301846141b3565b602081525f612c656020830184614141565b838152606060208201525f6142426060830185614141565b905063ffffffff60e01b8316604083015294935050505056fe9e7b61f58c47dc699ac88507c4f5bb9f121c03808c5676a8078fe583e4649700a2646970667358221220c03a8d42fcd72fc33149d1dccf5f204f0a1de523e90b4092d880ae7a1481af4764736f6c63430008180033",
  "linkReferences": {},
  "deployedLinkReferences": {}
}