{
  "_format": "hh-sol-artifact-1",
  "contractName": "BetMarket",
  "sourceName": "contracts/BetMarket.sol",
  "abi": [
    {
      "inputs": [
        {
          "internalType": "address",
          "name": "_adminManager",
          "type": "address"
        },
        {
          "internalType": "address",
          "name": "_categoryManager",
          "type": "address"
        },
        {
          "internalType": "address",
          "name": "_usdcToken",
          "type": "address"
        },
        {
          "internalType": "address",
          "name": "_feeRecipient",
          "type": "address"
        }
      ],
      "stateMutability": "nonpayable",
      "type": "constructor"
    },
    {
      "inputs": [],
      "name": "HandlesAlreadySavedForRequestID",
      "type": "error"
    },
    {
      "inputs": [],
      "name": "InvalidKMSSignatures",
      "type": "error"
    },
    {
      "inputs": [],
      "name": "NoHandleFoundForRequestID",
      "type": "error"
    },
    {
      "anonymous": false,
      "inputs": [
        {
          "indexed": true,
          "internalType": "uint256",
          "name": "betId",
          "type": "uint256"
        },
        {
          "indexed": false,
          "internalType": "string",
          "name": "title",
          "type": "string"
        },
        {
          "indexed": false,
          "internalType": "uint256",
          "name": "categoryId",
          "type": "uint256"
        }
      ],
      "name": "BetCreated",
      "type": "event"
    },
    {
      "anonymous": false,
      "inputs": [
        {
          "indexed": true,
          "internalType": "uint256",
          "name": "betId",
          "type": "uint256"
        },
        {
          "indexed": true,
          "internalType": "address",
          "name": "user",
          "type": "address"
        },
        {
          "indexed": false,
          "internalType": "uint256",
          "name": "optionIndex",
          "type": "uint256"
        },
        {
          "indexed": false,
          "internalType": "uint256",
          "name": "shares",
          "type": "uint256"
        }
      ],
      "name": "BetPlaced",
      "type": "event"
    },
    {
      "anonymous": false,
      "inputs": [
        {
          "indexed": true,
          "internalType": "uint256",
          "name": "betId",
          "type": "uint256"
        },
        {
          "indexed": false,
          "internalType": "uint256",
          "name": "winnerIndex",
          "type": "uint256"
        }
      ],
      "name": "BetResolved",
      "type": "event"
    },
    {
      "anonymous": false,
      "inputs": [
        {
          "indexed": true,
          "internalType": "uint256",
          "name": "requestID",
          "type": "uint256"
        }
      ],
      "name": "DecryptionFulfilled",
      "type": "event"
    },
    {
      "anonymous": false,
      "inputs": [
        {
          "indexed": true,
          "internalType": "uint256",
          "name": "decryptionId",
          "type": "uint256"
        },
        {
          "indexed": false,
          "internalType": "uint256",
          "name": "winnings",
          "type": "uint256"
        }
      ],
      "name": "DecryptionProcessed",
      "type": "event"
    },
    {
      "anonymous": false,
      "inputs": [
        {
          "indexed": true,
          "internalType": "uint256",
          "name": "decryptionId",
          "type": "uint256"
        },
        {
          "indexed": true,
          "internalType": "uint256",
          "name": "betId",
          "type": "uint256"
        },
        {
          "indexed": true,
          "internalType": "address",
          "name": "user",
          "type": "address"
        }
      ],
      "name": "DecryptionRequested",
      "type": "event"
    },
    {
      "anonymous": false,
      "inputs": [
        {
          "indexed": true,
          "internalType": "uint256",
          "name": "betId",
          "type": "uint256"
        },
        {
          "indexed": true,
          "internalType": "address",
          "name": "user",
          "type": "address"
        },
        {
          "indexed": false,
          "internalType": "uint256",
          "name": "amount",
          "type": "uint256"
        }
      ],
      "name": "WinningsClaimed",
      "type": "event"
    },
    {
      "inputs": [],
      "name": "adminManager",
      "outputs": [
        {
          "internalType": "contract IAdminManager",
          "name": "",
          "type": "address"
        }
      ],
      "stateMutability": "view",
      "type": "function"
    },
    {
      "inputs": [
        {
          "internalType": "address",
          "name": "",
          "type": "address"
        }
      ],
      "name": "authorizedOracles",
      "outputs": [
        {
          "internalType": "bool",
          "name": "",
          "type": "bool"
        }
      ],
      "stateMutability": "view",
      "type": "function"
    },
    {
      "inputs": [],
      "name": "categoryManager",
      "outputs": [
        {
          "internalType": "contract ICategoryManager",
          "name": "",
          "type": "address"
        }
      ],
      "stateMutability": "view",
      "type": "function"
    },
    {
      "inputs": [
        {
          "internalType": "uint256",
          "name": "_betId",
          "type": "uint256"
        }
      ],
      "name": "claimWinnings",
      "outputs": [],
      "stateMutability": "payable",
      "type": "function"
    },
    {
      "inputs": [
        {
          "internalType": "string",
          "name": "_title",
          "type": "string"
        },
        {
          "internalType": "string",
          "name": "_description",
          "type": "string"
        },
        {
          "internalType": "string",
          "name": "_imageUrl",
          "type": "string"
        },
        {
          "internalType": "uint256",
          "name": "_categoryId",
          "type": "uint256"
        },
        {
          "internalType": "string[]",
          "name": "_optionTitles",
          "type": "string[]"
        },
        {
          "internalType": "uint256",
          "name": "_endTime",
          "type": "uint256"
        },
        {
          "internalType": "bool",
          "name": "_mustShowLive",
          "type": "bool"
        },
        {
          "internalType": "uint256",
          "name": "_liveStartTime",
          "type": "uint256"
        },
        {
          "internalType": "uint256",
          "name": "_liveEndTime",
          "type": "uint256"
        },
        {
          "internalType": "enum IBetMarket.BetType",
          "name": "_betType",
          "type": "uint8"
        },
        {
          "internalType": "uint256",
          "name": "_minBetAmount",
          "type": "uint256"
        },
        {
          "internalType": "uint256",
          "name": "_maxBetAmount",
          "type": "uint256"
        }
      ],
      "name": "createBet",
      "outputs": [
        {
          "internalType": "uint256",
          "name": "",
          "type": "uint256"
        }
      ],
      "stateMutability": "nonpayable",
      "type": "function"
    },
    {
      "inputs": [],
      "name": "emergencyWithdraw",
      "outputs": [],
      "stateMutability": "nonpayable",
      "type": "function"
    },
    {
      "inputs": [],
      "name": "feeRecipient",
      "outputs": [
        {
          "internalType": "address",
          "name": "",
          "type": "address"
        }
      ],
      "stateMutability": "view",
      "type": "function"
    },
    {
      "inputs": [],
      "name": "getActiveBets",
      "outputs": [
        {
          "internalType": "uint256[]",
          "name": "",
          "type": "uint256[]"
        }
      ],
      "stateMutability": "view",
      "type": "function"
    },
    {
      "inputs": [
        {
          "internalType": "uint256",
          "name": "_betId",
          "type": "uint256"
        }
      ],
      "name": "getBet",
      "outputs": [
        {
          "components": [
            {
              "internalType": "uint256",
              "name": "id",
              "type": "uint256"
            },
            {
              "internalType": "string",
              "name": "title",
              "type": "string"
            },
            {
              "internalType": "string",
              "name": "description",
              "type": "string"
            },
            {
              "internalType": "string",
              "name": "imageUrl",
              "type": "string"
            },
            {
              "internalType": "uint256",
              "name": "categoryId",
              "type": "uint256"
            },
            {
              "internalType": "uint256",
              "name": "endTime",
              "type": "uint256"
            },
            {
              "internalType": "bool",
              "name": "isActive",
              "type": "bool"
            },
            {
              "internalType": "bool",
              "name": "isResolved",
              "type": "bool"
            },
            {
              "internalType": "uint256",
              "name": "createdAt",
              "type": "uint256"
            },
            {
              "internalType": "uint256",
              "name": "updatedAt",
              "type": "uint256"
            },
            {
              "internalType": "bool",
              "name": "mustShowLive",
              "type": "bool"
            },
            {
              "internalType": "uint256",
              "name": "liveStartTime",
              "type": "uint256"
            },
            {
              "internalType": "uint256",
              "name": "liveEndTime",
              "type": "uint256"
            },
            {
              "internalType": "enum IBetMarket.BetType",
              "name": "betType",
              "type": "uint8"
            },
            {
              "internalType": "uint256",
              "name": "optionCount",
              "type": "uint256"
            },
            {
              "internalType": "uint256",
              "name": "minBetAmount",
              "type": "uint256"
            },
            {
              "internalType": "uint256",
              "name": "maxBetAmount",
              "type": "uint256"
            },
            {
              "internalType": "address",
              "name": "createdBy",
              "type": "address"
            },
            {
              "internalType": "uint256",
              "name": "totalParticipants",
              "type": "uint256"
            }
          ],
          "internalType": "struct IBetMarket.Bet",
          "name": "",
          "type": "tuple"
        }
      ],
      "stateMutability": "view",
      "type": "function"
    },
    {
      "inputs": [
        {
          "internalType": "uint256",
          "name": "_betId",
          "type": "uint256"
        },
        {
          "internalType": "uint256",
          "name": "_optionIndex",
          "type": "uint256"
        }
      ],
      "name": "getBetOption",
      "outputs": [
        {
          "components": [
            {
              "internalType": "string",
              "name": "title",
              "type": "string"
            },
            {
              "internalType": "euint64",
              "name": "totalAmount",
              "type": "bytes32"
            },
            {
              "internalType": "uint256",
              "name": "totalShares",
              "type": "uint256"
            },
            {
              "internalType": "bool",
              "name": "isWinner",
              "type": "bool"
            }
          ],
          "internalType": "struct IBetMarket.BetOption",
          "name": "",
          "type": "tuple"
        }
      ],
      "stateMutability": "view",
      "type": "function"
    },
    {
      "inputs": [
        {
          "internalType": "uint256",
          "name": "_categoryId",
          "type": "uint256"
        }
      ],
      "name": "getBetsByCategory",
      "outputs": [
        {
          "internalType": "uint256[]",
          "name": "",
          "type": "uint256[]"
        }
      ],
      "stateMutability": "view",
      "type": "function"
    },
    {
      "inputs": [
        {
          "internalType": "uint256",
          "name": "_decryptionId",
          "type": "uint256"
        }
      ],
      "name": "getDecryptionRequest",
      "outputs": [
        {
          "components": [
            {
              "internalType": "uint256",
              "name": "betId",
              "type": "uint256"
            },
            {
              "internalType": "address",
              "name": "user",
              "type": "address"
            },
            {
              "internalType": "uint256",
              "name": "requestId",
              "type": "uint256"
            },
            {
              "internalType": "bool",
              "name": "processed",
              "type": "bool"
            },
            {
              "internalType": "uint256",
              "name": "timestamp",
              "type": "uint256"
            }
          ],
          "internalType": "struct BetMarket.DecryptionRequest",
          "name": "",
          "type": "tuple"
        }
      ],
      "stateMutability": "view",
      "type": "function"
    },
    {
      "inputs": [
        {
          "internalType": "address",
          "name": "_user",
          "type": "address"
        }
      ],
      "name": "getUserBets",
      "outputs": [
        {
          "components": [
            {
              "internalType": "uint256",
              "name": "betId",
              "type": "uint256"
            },
            {
              "internalType": "uint256",
              "name": "optionIndex",
              "type": "uint256"
            },
            {
              "internalType": "euint64",
              "name": "amount",
              "type": "bytes32"
            },
            {
              "internalType": "uint256",
              "name": "shares",
              "type": "uint256"
            },
            {
              "internalType": "uint256",
              "name": "timestamp",
              "type": "uint256"
            },
            {
              "internalType": "bool",
              "name": "claimed",
              "type": "bool"
            }
          ],
          "internalType": "struct IBetMarket.UserBet[]",
          "name": "",
          "type": "tuple[]"
        }
      ],
      "stateMutability": "view",
      "type": "function"
    },
    {
      "inputs": [
        {
          "internalType": "uint256",
          "name": "_betId",
          "type": "uint256"
        },
        {
          "internalType": "uint256",
          "name": "_optionIndex",
          "type": "uint256"
        },
        {
          "internalType": "externalEuint64",
          "name": "_encryptedAmount",
          "type": "bytes32"
        },
        {
          "internalType": "bytes",
          "name": "_proof",
          "type": "bytes"
        },
        {
          "internalType": "uint256",
          "name": "_actualAmount",
          "type": "uint256"
        }
      ],
      "name": "placeBet",
      "outputs": [],
      "stateMutability": "nonpayable",
      "type": "function"
    },
    {
      "inputs": [],
      "name": "platformFee",
      "outputs": [
        {
          "internalType": "uint256",
          "name": "",
          "type": "uint256"
        }
      ],
      "stateMutability": "view",
      "type": "function"
    },
    {
      "inputs": [],
      "name": "protocolId",
      "outputs": [
        {
          "internalType": "uint256",
          "name": "",
          "type": "uint256"
        }
      ],
      "stateMutability": "pure",
      "type": "function"
    },
    {
      "inputs": [
        {
          "internalType": "uint256",
          "name": "_betId",
          "type": "uint256"
        },
        {
          "internalType": "uint256",
          "name": "_winnerIndex",
          "type": "uint256"
        }
      ],
      "name": "resolveBet",
      "outputs": [],
      "stateMutability": "nonpayable",
      "type": "function"
    },
    {
      "inputs": [
        {
          "internalType": "address",
          "name": "_oracle",
          "type": "address"
        },
        {
          "internalType": "bool",
          "name": "_authorized",
          "type": "bool"
        }
      ],
      "name": "setAuthorizedOracle",
      "outputs": [],
      "stateMutability": "nonpayable",
      "type": "function"
    },
    {
      "inputs": [
        {
          "internalType": "address",
          "name": "_newRecipient",
          "type": "address"
        }
      ],
      "name": "updateFeeRecipient",
      "outputs": [],
      "stateMutability": "nonpayable",
      "type": "function"
    },
    {
      "inputs": [
        {
          "internalType": "uint256",
          "name": "_newFee",
          "type": "uint256"
        }
      ],
      "name": "updatePlatformFee",
      "outputs": [],
      "stateMutability": "nonpayable",
      "type": "function"
    },
    {
      "inputs": [],
      "name": "usdcToken",
      "outputs": [
        {
          "internalType": "contract IERC20",
          "name": "",
          "type": "address"
        }
      ],
      "stateMutability": "view",
      "type": "function"
    },
    {
      "inputs": [
        {
          "internalType": "uint256",
          "name": "requestId",
          "type": "uint256"
        },
        {
          "internalType": "bytes",
          "name": "cleartexts",
          "type": "bytes"
        },
        {
          "internalType": "bytes",
          "name": "decryptionProof",
          "type": "bytes"
        }
      ],
      "name": "winningsDecryptionCallback",
      "outputs": [],
      "stateMutability": "nonpayable",
      "type": "function"
    },
    {
      "inputs": [],
      "name": "withdrawFees",
      "outputs": [],
      "stateMutability": "nonpayable",
      "type": "function"
    },
    {
      "stateMutability": "payable",
      "type": "receive"
    }
  ],
  "bytecode": "0x6080604052600160065560c8600b556001600e553480156200001f575f80fd5b50604051620043523803806200435283398101604081905262000042916200024b565b60015f55620001c2620000e6604080516080810182525f808252602082018190529181018290526060810191909152506040805160808101825273687820221192c5b662b25367f70076a37bc79b6c815273848b0066793bcc60346da1f49049357399b8d595602082015273a02cda4ca3a71d7c46997716f4283aa851c2881291810191909152731364cbbf2cdf5032c47d8226a6f6fbd2afcdacac606082015290565b80517f9e7b61f58c47dc699ac88507c4f5bb9f121c03808c5676a8078fe583e464970080546001600160a01b03199081166001600160a01b039384161790915560208301517f9e7b61f58c47dc699ac88507c4f5bb9f121c03808c5676a8078fe583e46497018054831691841691909117905560408301517f9e7b61f58c47dc699ac88507c4f5bb9f121c03808c5676a8078fe583e46497028054831691841691909117905560608301517f9e7b61f58c47dc699ac88507c4f5bb9f121c03808c5676a8078fe583e46497038054909216921691909117905550565b600880546001600160a01b039586166001600160a01b0319918216179091556009805494861694821694909417909355600a805492851692841692909217909155600c8054919093169116179055335f908152600f60205260409020805460ff19166001179055620002a5565b80516001600160a01b038116811462000246575f80fd5b919050565b5f805f80608085870312156200025f575f80fd5b6200026a856200022f565b93506200027a602086016200022f565b92506200028a604086016200022f565b91506200029a606086016200022f565b905092959194509250565b61409f80620002b35f395ff3fe60806040526004361061013f575f3560e01c8063677bd9ff116100b3578063b17114d61161006d578063b17114d6146103f9578063c7a6de4d14610418578063d86ec23814610437578063da1f12ab14610456578063db2e21bc1461046a578063f160d3691461047e575f80fd5b8063677bd9ff1461030157806377a5ebbd146103145780638d4c9c371461037b578063a210b6a4146103a7578063aa0b5988146103c6578063ada73020146103e5575f80fd5b806346904840116101045780634690484014610226578063476343ee146102455780634c49de0114610259578063560fd1b6146102785780635cb5804a146102a457806361c992a3146102c3575f80fd5b806304ba75801461014a578063061e494f1461016b57806311eac855146101a057806326232a2e146101d75780632d56657d146101fa575f80fd5b3661014657005b5f80fd5b348015610155575f80fd5b506101696101643660046135f7565b61049d565b005b348015610176575f80fd5b5061018a61018536600461365e565b610927565b60405161019791906136ea565b60405180910390f35b3480156101ab575f80fd5b50600a546101bf906001600160a01b031681565b6040516001600160a01b039091168152602001610197565b3480156101e2575f80fd5b506101ec600b5481565b604051908152602001610197565b348015610205575f80fd5b5061021961021436600461385a565b610c11565b6040516101979190613873565b348015610231575f80fd5b50600c546101bf906001600160a01b031681565b348015610250575f80fd5b50610169610cbf565b348015610264575f80fd5b506101696102733660046138ec565b610e41565b348015610283575f80fd5b5061029761029236600461397b565b6113f1565b604051610197919061399b565b3480156102af575f80fd5b506101696102be36600461397b565b611585565b3480156102ce575f80fd5b506102f16102dd36600461385a565b600f6020525f908152604090205460ff1681565b6040519015158152602001610197565b61016961030f36600461365e565b6117cb565b34801561031f575f80fd5b5061033361032e36600461365e565b611a2d565b6040516101979190815181526020808301516001600160a01b031690820152604080830151908201526060808301511515908201526080918201519181019190915260a00190565b348015610386575f80fd5b5061039a61039536600461365e565b611ac1565b60405161019791906139e2565b3480156103b2575f80fd5b506008546101bf906001600160a01b031681565b3480156103d1575f80fd5b506101696103e036600461365e565b611c8b565b3480156103f0575f80fd5b5061039a611d31565b348015610404575f80fd5b506101ec610413366004613af7565b611edc565b348015610423575f80fd5b50610169610432366004613c0b565b612746565b348015610442575f80fd5b506009546101bf906001600160a01b031681565b348015610461575f80fd5b506127116101ec565b348015610475575f80fd5b506101696127c7565b348015610489575f80fd5b5061016961049836600461385a565b612855565b335f908152600f602052604090205460ff1661050c5760405162461bcd60e51b8152602060048201526024808201527f4f6e6c7920617574686f72697a6564206f7261636c652063616e2063616c6c206044820152637468697360e01b60648201526084015b60405180910390fd5b5f8060015b600e54811015610564575f818152600d60205260409020600201548614801561054b57505f818152600d602052604090206003015460ff16155b1561055c5780925060019150610564565b600101610511565b50806105be5760405162461bcd60e51b8152602060048201526024808201527f496e76616c6964206f7220616c72656164792070726f636573736564207265716044820152631d595cdd60e21b6064820152608401610503565b6105c9858585612925565b5f828152600d60209081526040822060038101805460ff191660019081179091558154908201548851929491936001600160a01b039091169261061391908a018101908a01613c40565b90505f61062184848461298e565b905080156108e1575f8481526004602090815260408083206001600160a01b03871684529091528120905b81548110156106ef575f868152600260205260409020825483908390811061067657610676613cdd565b905f5260205f209060060201600101548154811061069657610696613cdd565b5f91825260209091206003600490920201015460ff16156106e75760018282815481106106c5576106c5613cdd565b5f9182526020909120600690910201600501805460ff19169115159190911790555b60010161064c565b505f612710600b54846107029190613d05565b61070c9190613d1c565b90505f6107198285613d3b565b600a5460405163a9059cbb60e01b81526001600160a01b0389811660048301526024820184905292935091169063a9059cbb906044016020604051808303815f875af115801561076b573d5f803e3d5ffd5b505050506040513d601f19601f8201168201806040525081019061078f9190613d4e565b6107db5760405162461bcd60e51b815260206004820152601860248201527f57696e6e696e6773207472616e73666572206661696c656400000000000000006044820152606401610503565b811561089957600a54600c5460405163a9059cbb60e01b81526001600160a01b0391821660048201526024810185905291169063a9059cbb906044016020604051808303815f875af1158015610833573d5f803e3d5ffd5b505050506040513d601f19601f820116820180604052508101906108579190613d4e565b6108995760405162461bcd60e51b8152602060048201526013602482015272119959481d1c985b9cd9995c8819985a5b1959606a1b6044820152606401610503565b856001600160a01b0316877f5380cf6fe903b40c6d5a9e0dfbca2f3a423f0a21520b4d5947ed5169bdba946d836040516108d591815260200190565b60405180910390a35050505b867fededfbab5c5a25df30673b65c6c03ce46b36af175edb39864a555e967c48ff768260405161091391815260200190565b60405180910390a250505050505050505050565b61092f613449565b5f8281526001602052604081205483910361095c5760405162461bcd60e51b815260040161050390613d69565b5f83815260016020818152604092839020835161026081019094528054845291820180549184019161098d90613d95565b80601f01602080910402602001604051908101604052809291908181526020018280546109b990613d95565b8015610a045780601f106109db57610100808354040283529160200191610a04565b820191905f5260205f20905b8154815290600101906020018083116109e757829003601f168201915b50505050508152602001600282018054610a1d90613d95565b80601f0160208091040260200160405190810160405280929190818152602001828054610a4990613d95565b8015610a945780601f10610a6b57610100808354040283529160200191610a94565b820191905f5260205f20905b815481529060010190602001808311610a7757829003601f168201915b50505050508152602001600382018054610aad90613d95565b80601f0160208091040260200160405190810160405280929190818152602001828054610ad990613d95565b8015610b245780601f10610afb57610100808354040283529160200191610b24565b820191905f5260205f20905b815481529060010190602001808311610b0757829003601f168201915b50505091835250506004820154602082015260058201546040820152600682015460ff8082161515606084015261010091829004811615156080840152600784015460a0840152600884015460c084015260098401548116151560e0840152600a84015491830191909152600b830154610120830152600c83015461014090920191166002811115610bb857610bb86136c2565b6002811115610bc957610bc96136c2565b8152600d8201546020820152600e8201546040820152600f820154606082015260108201546001600160a01b0316608082015260119091015460a09091015291505b50919050565b6001600160a01b0381165f908152600360209081526040808320805482518185028101850190935280835260609492939192909184015b82821015610cb4575f8481526020908190206040805160c08101825260068602909201805483526001808201548486015260028201549284019290925260038101546060840152600481015460808401526005015460ff16151560a08301529083529092019101610c48565b505050509050919050565b600854604051635418915560e11b81523360048201526001600160a01b039091169063a83122aa906024015f6040518083038186803b158015610d00575f80fd5b505afa158015610d12573d5f803e3d5ffd5b5050600a546040516370a0823160e01b81523060048201525f93506001600160a01b0390911691506370a0823190602401602060405180830381865afa158015610d5e573d5f803e3d5ffd5b505050506040513d601f19601f82011682018060405250810190610d829190613dc7565b600a54600c5460405163a9059cbb60e01b81526001600160a01b03918216600482015260248101849052929350169063a9059cbb906044016020604051808303815f875af1158015610dd6573d5f803e3d5ffd5b505050506040513d601f19601f82011682018060405250810190610dfa9190613d4e565b610e3e5760405162461bcd60e51b8152602060048201526015602482015274119959481dda5d1a191c985dd85b0819985a5b1959605a1b6044820152606401610503565b50565b610e49612c9e565b5f86815260016020526040812054879103610e765760405162461bcd60e51b815260040161050390613d69565b5f87815260016020526040902060060154879060ff16610ecc5760405162461bcd60e51b8152602060048201526011602482015270426574206973206e6f742061637469766560781b6044820152606401610503565b5f818152600160205260409020600501544210610f1b5760405162461bcd60e51b815260206004820152600d60248201526c10995d081a185cc8195b991959609a1b6044820152606401610503565b5f81815260016020526040902060060154610100900460ff1615610f7b5760405162461bcd60e51b815260206004820152601760248201527610995d081a5cc8185b1c9958591e481c995cdbdb1d9959604a1b6044820152606401610503565b5f888152600260205260409020548710610fce5760405162461bcd60e51b8152602060048201526014602482015273092dcecc2d8d2c840dee0e8d2dedc40d2dcc8caf60631b6044820152606401610503565b5f888152600160205260409020600e01548310156110255760405162461bcd60e51b8152602060048201526014602482015273416d6f756e742062656c6f77206d696e696d756d60601b6044820152606401610503565b5f888152600160205260409020600f015483111561107c5760405162461bcd60e51b8152602060048201526014602482015273416d6f756e742061626f7665206d6178696d756d60601b6044820152606401610503565b600a546040516323b872dd60e01b8152336004820152306024820152604481018590526001600160a01b03909116906323b872dd906064016020604051808303815f875af11580156110d0573d5f803e3d5ffd5b505050506040513d601f19601f820116820180604052508101906110f49190613d4e565b6111665760405162461bcd60e51b815260206004820152603c60248201527f55534443207472616e73666572206661696c6564202d20656e7375726520796f60448201527f75206861766520617070726f7665642074686520636f6e7472616374000000006064820152608401610503565b5f8881526002602052604090208054849182918a90811061118957611189613cdd565b905f5260205f2090600402016002015f8282546111a69190613dde565b925050819055505f6040518060c001604052808b81526020018a81526020016111ce5f612cf5565b81526020018381526020014281526020015f1515815250905060035f336001600160a01b03166001600160a01b031681526020019081526020015f2081908060018154018082558091505060019003905f5260205f2090600602015f909190919091505f820151815f01556020820151816001015560408201518160020155606082015181600301556080820151816004015560a0820151816005015f6101000a81548160ff021916908315150217905550505060045f8b81526020019081526020015f205f336001600160a01b03166001600160a01b031681526020019081526020015f2081908060018154018082558091505060019003905f5260205f2090600602015f909190919091505f820151815f01556020820151816001015560408201518160020155606082015181600301556080820151816004015560a0820151816005015f6101000a81548160ff021916908315150217905550505060045f8b81526020019081526020015f205f336001600160a01b03166001600160a01b031681526020019081526020015f208054905060010361139f575f8a815260016020526040812060110180549161138583613df1565b90915550505f8a8152600160205260409020426008909101555b604080518a81526001602082015233918c917f1b8a9031cb9351278d70a994f81536e9e08c91162e64f92b2fe4766fb7a891b4910160405180910390a3505050506113e960015f55565b505050505050565b6040805160808101825260608082525f602083018190529282018390528101919091525f838152600160205260408120548491036114415760405162461bcd60e51b815260040161050390613d69565b5f8481526002602052604090205483106114945760405162461bcd60e51b8152602060048201526014602482015273092dcecc2d8d2c840dee0e8d2dedc40d2dcc8caf60631b6044820152606401610503565b5f8481526002602052604090208054849081106114b3576114b3613cdd565b905f5260205f2090600402016040518060800160405290815f820180546114d990613d95565b80601f016020809104026020016040519081016040528092919081815260200182805461150590613d95565b80156115505780601f1061152757610100808354040283529160200191611550565b820191905f5260205f20905b81548152906001019060200180831161153357829003601f168201915b5050509183525050600182015460208201526002820154604082015260039091015460ff161515606090910152949350505050565b600854604051635418915560e11b81523360048201526001600160a01b039091169063a83122aa906024015f6040518083038186803b1580156115c6575f80fd5b505afa1580156115d8573d5f803e3d5ffd5b5050505f83815260016020526040812054849250900361160a5760405162461bcd60e51b815260040161050390613d69565b5f83815260016020526040902060060154610100900460ff161561166a5760405162461bcd60e51b815260206004820152601760248201527610995d081a5cc8185b1c9958591e481c995cdbdb1d9959604a1b6044820152606401610503565b5f838152600160205260409020600501544210156116c25760405162461bcd60e51b815260206004820152601560248201527410995d081a185cc81b9bdd08195b991959081e595d605a1b6044820152606401610503565b5f8381526002602052604090205482106117155760405162461bcd60e51b8152602060048201526014602482015273092dcecc2d8d2c840eed2dcdccae440d2dcc8caf60631b6044820152606401610503565b5f8381526002602052604090208054600191908490811061173857611738613cdd565b5f9182526020808320600360049093020191909101805493151560ff199094169390931790925584815260019091526040902060068101805461ff0019166101001790554260089091015561178c83612d10565b827f6f014aa1fc0c12b56c099fa8727bbf780907046b16c01199f4092f5c721187ab836040516117be91815260200190565b60405180910390a2505050565b6117d3612c9e565b5f818152600160205260408120548291036118005760405162461bcd60e51b815260040161050390613d69565b5f82815260016020526040902060060154610100900460ff166118655760405162461bcd60e51b815260206004820152601760248201527f426574206973206e6f74207265736f6c766564207965740000000000000000006044820152606401610503565b66470de4df8200003410156118c85760405162461bcd60e51b815260206004820152602360248201527f496e73756666696369656e74206761732066656520666f72206465637279707460448201526234b7b760e91b6064820152608401610503565b5f828152600460209081526040808320338452909152902080546119275760405162461bcd60e51b81526020600482015260166024820152752737903132ba39903337bab732103337b9103ab9b2b960511b6044820152606401610503565b5f805b82548110156119d15782818154811061194557611945613cdd565b5f91825260209091206005600690920201015460ff161580156119bb57505f858152600260205260409020835484908390811061198457611984613cdd565b905f5260205f20906006020160010154815481106119a4576119a4613cdd565b5f91825260209091206003600490920201015460ff165b156119c957600191506119d1565b60010161192a565b5080611a175760405162461bcd60e51b81526020600482015260156024820152744e6f20756e636c61696d65642077696e6e696e677360581b6044820152606401610503565b611a218433612db9565b505050610e3e60015f55565b611a656040518060a001604052805f81526020015f6001600160a01b031681526020015f81526020015f151581526020015f81525090565b505f908152600d6020908152604091829020825160a0810184528154815260018201546001600160a01b031692810192909252600281015492820192909252600382015460ff1615156060820152600490910154608082015290565b5f818152600560209081526040808320805482518185028101850190935280835260609493830182828015611b1357602002820191905f5260205f20905b815481526020019060010190808311611aff575b505050505090505f805b8251811015611b9b575f838281518110611b3957611b39613cdd565b6020908102919091018101515f818152600190925260409091206006015490915060ff168015611b7f57505f81815260016020526040902060060154610100900460ff16155b15611b925782611b8e81613df1565b9350505b50600101611b1d565b505f816001600160401b03811115611bb557611bb5613548565b604051908082528060200260200182016040528015611bde578160200160208202803683370190505b5090505f805b8451811015611c80575f858281518110611c0057611c00613cdd565b6020908102919091018101515f818152600190925260409091206006015490915060ff168015611c4657505f81815260016020526040902060060154610100900460ff16155b15611c775780848481518110611c5e57611c5e613cdd565b602090810291909101015282611c7381613df1565b9350505b50600101611be4565b509095945050505050565b600854604051635418915560e11b81523360048201526001600160a01b039091169063a83122aa906024015f6040518083038186803b158015611ccc575f80fd5b505afa158015611cde573d5f803e3d5ffd5b505050506103e8811115611d2c5760405162461bcd60e51b81526020600482015260156024820152744665652063616e6e6f74206578636565642031302560581b6044820152606401610503565b600b55565b60605f805b600754811015611dd1575f60078281548110611d5457611d54613cdd565b5f918252602080832090910154808352600190915260409091206006015490915060ff168015611d9357505f8181526001602052604090206005015442105b8015611db557505f81815260016020526040902060060154610100900460ff16155b15611dc85782611dc481613df1565b9350505b50600101611d36565b505f816001600160401b03811115611deb57611deb613548565b604051908082528060200260200182016040528015611e14578160200160208202803683370190505b5090505f805b600754811015611ed3575f60078281548110611e3857611e38613cdd565b5f918252602080832090910154808352600190915260409091206006015490915060ff168015611e7757505f8181526001602052604090206005015442105b8015611e9957505f81815260016020526040902060060154610100900460ff16155b15611eca5780848481518110611eb157611eb1613cdd565b602090810291909101015282611ec681613df1565b9350505b50600101611e1a565b50909392505050565b6008546040516395a8c58d60e01b81525f916001600160a01b0316906395a8c58d90611f0f903390600390600401613e09565b602060405180830381865afa158015611f2a573d5f803e3d5ffd5b505050506040513d601f19601f82011682018060405250810190611f4e9190613d4e565b80611fc557506008546040516395a8c58d60e01b81526001600160a01b03909116906395a8c58d90611f869033906004908101613e09565b602060405180830381865afa158015611fa1573d5f803e3d5ffd5b505050506040513d601f19601f82011682018060405250810190611fc59190613d4e565b6120215760405162461bcd60e51b815260206004820152602760248201527f4f6e6c7920626574206d616e616765722063616e2063616c6c207468697320666044820152663ab731ba34b7b760c91b6064820152608401610503565b5f8d51116120715760405162461bcd60e51b815260206004820152601960248201527f426574207469746c652063616e6e6f7420626520656d707479000000000000006044820152606401610503565b5f8c51116120c15760405162461bcd60e51b815260206004820152601f60248201527f426574206465736372697074696f6e2063616e6e6f7420626520656d707479006044820152606401610503565b6002895110156121135760405162461bcd60e51b815260206004820152601b60248201527f4174206c656173742032206f7074696f6e7320726571756972656400000000006044820152606401610503565b4288116121625760405162461bcd60e51b815260206004820152601e60248201527f456e642074696d65206d75737420626520696e207468652066757475726500006044820152606401610503565b6002846002811115612176576121766136c2565b60ff1611156121ba5760405162461bcd60e51b815260206004820152601060248201526f496e76616c696420626574207479706560801b6044820152606401610503565b5f83116122175760405162461bcd60e51b815260206004820152602560248201527f4d696e2062657420616d6f756e74206d75737420626520677265617465722074604482015264068616e20360dc1b6064820152608401610503565b828210156122785760405162461bcd60e51b815260206004820152602860248201527f4d61782062657420616d6f756e74206d757374206265203e3d206d696e2062656044820152671d08185b5bdd5b9d60c21b6064820152608401610503565b6009546040516361e778bb60e01b8152600481018c90526001600160a01b03909116906361e778bb90602401602060405180830381865afa1580156122bf573d5f803e3d5ffd5b505050506040513d601f19601f820116820180604052508101906122e39190613d4e565b6123285760405162461bcd60e51b815260206004820152601660248201527543617465676f7279206973206e6f742061637469766560501b6044820152606401610503565b86156123de5784861061237d5760405162461bcd60e51b815260206004820152601760248201527f496e76616c6964206c6976652074696d652072616e67650000000000000000006044820152606401610503565b878511156123de5760405162461bcd60e51b815260206004820152602860248201527f4c69766520656e642074696d652063616e6e6f74206578636565642062657420604482015267656e642074696d6560c01b6064820152608401610503565b600680545f91826123ee83613df1565b9190505590506040518061026001604052808281526020018f81526020018e81526020018d81526020018c81526020018a81526020016001151581526020015f151581526020014281526020014281526020018915158152602001888152602001878152602001866002811115612467576124676136c2565b81528b516020808301919091526040808301889052606083018790523360808401525f60a090930183905284835260018083529220835181559083015190918201906124b39082613e82565b50604082015160028201906124c89082613e82565b50606082015160038201906124dd9082613e82565b506080820151600482015560a0820151600582015560c082015160068201805460e085015161ffff1990911692151561ff0019169290921761010092151583021790558201516007820155610120820151600882015561014082015160098201805460ff19908116921515929092179055610160830151600a830155610180830151600b8301556101a0830151600c8301805491929091166001836002811115612589576125896136c2565b02179055506101c0820151600d8201556101e0820151600e820155610200820151600f8201556102208201516010820180546001600160a01b0319166001600160a01b03909216919091179055610240909101516011909101555f5b8a5181101561269f5760025f8381526020019081526020015f2060405180608001604052808d848151811061261c5761261c613cdd565b602002602001015181526020016126325f612cf5565b81525f6020808301829052604090920181905283546001810185559381522081519192600402019081906126669082613e82565b506020820151600182810191909155604083015160028301556060909201516003909101805460ff1916911515919091179055016125e5565b5060055f8c81526020019081526020015f2081908060018154018082558091505060019003905f5260205f20015f9091909190915055600781908060018154018082558091505060019003905f5260205f20015f9091909190915055807fcdebbaf6a57d20bf7a10d7fc20531a1574c22867908778f597d2c326718cd4578f8d60405161272d929190613f3d565b60405180910390a29d9c50505050505050505050505050565b600854604051635418915560e11b81523360048201526001600160a01b039091169063a83122aa906024015f6040518083038186803b158015612787575f80fd5b505afa158015612799573d5f803e3d5ffd5b505050506001600160a01b03919091165f908152600f60205260409020805460ff1916911515919091179055565b600854604051635418915560e11b81523360048201526001600160a01b039091169063a83122aa906024015f6040518083038186803b158015612808575f80fd5b505afa15801561281a573d5f803e3d5ffd5b5050600c546040516001600160a01b0390911692504780156108fc029250905f818181858888f19350505050158015610e3e573d5f803e3d5ffd5b600854604051635418915560e11b81523360048201526001600160a01b039091169063a83122aa906024015f6040518083038186803b158015612896575f80fd5b505afa1580156128a8573d5f803e3d5ffd5b5050506001600160a01b03821690506129035760405162461bcd60e51b815260206004820152601960248201527f496e76616c696420726563697069656e742061646472657373000000000000006044820152606401610503565b600c80546001600160a01b0319166001600160a01b0392909216919091179055565b5f61292f84613002565b90505f61293d8285856130d3565b90508061295d5760405163cf6c44e960e01b815260040160405180910390fd5b60405185907f1af0453083661051f6e56e5c070792320652e612154bf9af8637bb1e7655b99d905f90a25050505050565b5f8381526004602090815260408083206001600160a01b03861684528252808320868452600290925282205482816001600160401b038111156129d3576129d3613548565b6040519080825280602002602001820160405280156129fc578160200160208202803683370190505b5083549091505f906001600160401b03811115612a1b57612a1b613548565b604051908082528060200260200182016040528015612a44578160200160208202803683370190505b5090505f5b83811015612a9d57868181518110612a6357612a63613cdd565b6020026020010151838281518110612a7d57612a7d613cdd565b6001600160401b0390921660209283029190910190910152600101612a49565b505f5b8454811015612afe5786612ab48286613dde565b81518110612ac457612ac4613cdd565b6020026020010151828281518110612ade57612ade613cdd565b6001600160401b0390921660209283029190910190910152600101612aa0565b505f8080805b86811015612ba957858181518110612b1e57612b1e613cdd565b60200260200101516001600160401b031684612b3a9190613dde565b5f8d815260026020526040902080549195509082908110612b5d57612b5d613cdd565b5f91825260209091206003600490920201015460ff1615612ba157858181518110612b8a57612b8a613cdd565b60200260200101516001600160401b031692508091505b600101612b04565b50815f03612bc0575f975050505050505050612c97565b5f805b8854811015612c5f5782898281548110612bdf57612bdf613cdd565b905f5260205f20906006020160010154148015612c215750888181548110612c0957612c09613cdd565b5f91825260209091206005600690920201015460ff16155b15612c5757858181518110612c3857612c38613cdd565b60200260200101516001600160401b031682612c549190613dde565b91505b600101612bc3565b50805f03612c77575f98505050505050505050612c97565b82612c828583613d05565b612c8c9190613d1c565b985050505050505050505b9392505050565b60025f5403612cef5760405162461bcd60e51b815260206004820152601f60248201527f5265656e7472616e637947756172643a207265656e7472616e742063616c6c006044820152606401610503565b60025f55565b5f612d0a826001600160401b031660056131bf565b92915050565b5f5b600754811015612db5578160078281548110612d3057612d30613cdd565b905f5260205f20015403612dad5760078054612d4e90600190613d3b565b81548110612d5e57612d5e613cdd565b905f5260205f20015460078281548110612d7a57612d7a613cdd565b5f918252602090912001556007805480612d9657612d96613f5e565b600190038181905f5260205f20015f905590555050565b600101612d12565b5050565b5f8281526004602090815260408083206001600160a01b038516845282528083208054868552600290935290832054909291612df491613dde565b90505f816001600160401b03811115612e0f57612e0f613548565b604051908082528060200260200182016040528015612e38578160200160208202803683370190505b5090505f5b5f86815260026020526040902054811015612eae575f8681526002602052604090208054612e89919083908110612e7657612e76613cdd565b905f5260205f2090600402016001015490565b828281518110612e9b57612e9b613cdd565b6020908102919091010152600101612e3d565b505f5b8354811015612f2057612ee2848281548110612ecf57612ecf613cdd565b905f5260205f2090600602016002015490565b5f878152600260205260409020548390612efd908490613dde565b81518110612f0d57612f0d613cdd565b6020908102919091010152600101612eb1565b50600e80545f9182612f3183613df1565b9091555090505f612f4883620974eb60e71b61327c565b6040805160a0810182528981526001600160a01b0389811660208084018281528486018781525f6060870181815242608089019081528c8352600d9095528882209751885592516001880180546001600160a01b03191691909716179095555160028601555160038501805460ff191691151591909117905551600490930192909255915192935091899185917f389e206af32a0f894aae2a19ffb367b9bf8f7e785470c496e3648822c9949dad9190a450505050505050565b5f8181527f878245876662ba28a480c5ea71726db859fb50222b0a3d7cbbc21cfa336faf0160205260408120546060917f878245876662ba28a480c5ea71726db859fb50222b0a3d7cbbc21cfa336faf009190036130735760405163d66ca67560e01b815260040160405180910390fd5b5f838152600182016020908152604091829020805483518184028101840190945280845290918301828280156130c657602002820191905f5260205f20905b8154815260200190600101908083116130b2575b5050505050915050919050565b5f80835160206130e39190613dde565b6130ee906020613dde565b90505f8482604051602001613104929190613f72565b60405160208183030381529060405290505f61313d7f9e7b61f58c47dc699ac88507c4f5bb9f121c03808c5676a8078fe583e464970090565b60038101546040516378542ead60e01b81529192506001600160a01b0316906378542ead90613174908a9086908a90600401613fcd565b6020604051808303815f875af1158015613190573d5f803e3d5ffd5b505050506040513d601f19601f820116820180604052508101906131b49190613d4e565b979650505050505050565b7f9e7b61f58c47dc699ac88507c4f5bb9f121c03808c5676a8078fe583e464970154604051639cd07acb60e01b81525f917f9e7b61f58c47dc699ac88507c4f5bb9f121c03808c5676a8078fe583e4649700916001600160a01b0390911690639cd07acb90613234908790879060040161400f565b6020604051808303815f875af1158015613250573d5f803e3d5ffd5b505050506040513d601f19601f820116820180604052508101906132749190613dc7565b949350505050565b5f612c9783835f80807f878245876662ba28a480c5ea71726db859fb50222b0a3d7cbbc21cfa336faf008054925090505f7f9e7b61f58c47dc699ac88507c4f5bb9f121c03808c5676a8078fe583e46497008054604051637d6e912360e11b81529192506001600160a01b03169063fadd2246906132fe908990600401614026565b5f604051808303815f87803b158015613315575f80fd5b505af1158015613327573d5f803e3d5ffd5b5050506002820154604051633263b83b60e01b81526001600160a01b039091169150633263b83b9086906133639087908b908b90600401614038565b5f604051808303818588803b15801561337a575f80fd5b505af115801561338c573d5f803e3d5ffd5b505050505061339b83876133b6565b8154825f6133a883613df1565b919050555050509392505050565b5f8281527f878245876662ba28a480c5ea71726db859fb50222b0a3d7cbbc21cfa336faf0160205260409020547f878245876662ba28a480c5ea71726db859fb50222b0a3d7cbbc21cfa336faf00901561342357604051633f06d22b60e01b815260040160405180910390fd5b5f83815260018201602090815260409091208351613443928501906134eb565b50505050565b6040518061026001604052805f81526020016060815260200160608152602001606081526020015f81526020015f81526020015f151581526020015f151581526020015f81526020015f81526020015f151581526020015f81526020015f81526020015f60028111156134be576134be6136c2565b81526020015f81526020015f81526020015f81526020015f6001600160a01b031681526020015f81525090565b828054828255905f5260205f20908101928215613524579160200282015b82811115613524578251825591602001919060010190613509565b50613530929150613534565b5090565b5b80821115613530575f8155600101613535565b634e487b7160e01b5f52604160045260245ffd5b604051601f8201601f191681016001600160401b038111828210171561358457613584613548565b604052919050565b5f82601f83011261359b575f80fd5b81356001600160401b038111156135b4576135b4613548565b6135c7601f8201601f191660200161355c565b8181528460208386010111156135db575f80fd5b816020850160208301375f918101602001919091529392505050565b5f805f60608486031215613609575f80fd5b8335925060208401356001600160401b0380821115613626575f80fd5b6136328783880161358c565b93506040860135915080821115613647575f80fd5b506136548682870161358c565b9150509250925092565b5f6020828403121561366e575f80fd5b5035919050565b5f5b8381101561368f578181015183820152602001613677565b50505f910152565b5f81518084526136ae816020860160208601613675565b601f01601f19169290920160200192915050565b634e487b7160e01b5f52602160045260245ffd5b600381106136e6576136e66136c2565b9052565b60208152815160208201525f6020830151610260806040850152613712610280850183613697565b91506040850151601f19808685030160608701526137308483613697565b935060608701519150808685030160808701525061374e8382613697565b925050608085015160a085015260a085015160c085015260c085015161377860e086018215159052565b5060e085015161010061378e8187018315159052565b860151610120868101919091528601516101408087019190915286015190506101606137bd8187018315159052565b860151610180868101919091528601516101a08087019190915286015190506101c06137eb818701836136d6565b8601516101e0868101919091528601516102008087019190915286015161022080870191909152860151905061024061382e818701836001600160a01b03169052565b959095015193019290925250919050565b80356001600160a01b0381168114613855575f80fd5b919050565b5f6020828403121561386a575f80fd5b612c978261383f565b602080825282518282018190525f919060409081850190868401855b828110156138df5781518051855286810151878601528581015186860152606080820151908601526080808201519086015260a09081015115159085015260c0909301929085019060010161388f565b5091979650505050505050565b5f805f805f8060a08789031215613901575f80fd5b86359550602087013594506040870135935060608701356001600160401b038082111561392c575f80fd5b818901915089601f83011261393f575f80fd5b81358181111561394d575f80fd5b8a602082850101111561395e575f80fd5b602083019550809450505050608087013590509295509295509295565b5f806040838503121561398c575f80fd5b50508035926020909101359150565b602081525f8251608060208401526139b660a0840182613697565b905060208401516040840152604084015160608401526060840151151560808401528091505092915050565b602080825282518282018190525f9190848201906040850190845b81811015613a19578351835292840192918401916001016139fd565b50909695505050505050565b5f6001600160401b03821115613a3d57613a3d613548565b5060051b60200190565b5f82601f830112613a56575f80fd5b81356020613a6b613a6683613a25565b61355c565b82815260059290921b84018101918181019086841115613a89575f80fd5b8286015b84811015613ac65780356001600160401b03811115613aaa575f80fd5b613ab88986838b010161358c565b845250918301918301613a8d565b509695505050505050565b8015158114610e3e575f80fd5b803561385581613ad1565b803560038110613855575f80fd5b5f805f805f805f805f805f806101808d8f031215613b13575f80fd5b6001600160401b038d351115613b27575f80fd5b613b348e8e358f0161358c565b9b506001600160401b0360208e01351115613b4d575f80fd5b613b5d8e60208f01358f0161358c565b9a506001600160401b0360408e01351115613b76575f80fd5b613b868e60408f01358f0161358c565b995060608d013598506001600160401b0360808e01351115613ba6575f80fd5b613bb68e60808f01358f01613a47565b975060a08d01359650613bcb60c08e01613ade565b955060e08d013594506101008d01359350613be96101208e01613ae9565b92506101408d013591506101608d013590509295989b509295989b509295989b565b5f8060408385031215613c1c575f80fd5b613c258361383f565b91506020830135613c3581613ad1565b809150509250929050565b5f6020808385031215613c51575f80fd5b82516001600160401b0380821115613c67575f80fd5b818501915085601f830112613c7a575f80fd5b8151613c88613a6682613a25565b81815260059190911b83018401908481019088831115613ca6575f80fd5b938501935b82851015613cd15784518481168114613cc2575f80fd5b82529385019390850190613cab565b98975050505050505050565b634e487b7160e01b5f52603260045260245ffd5b634e487b7160e01b5f52601160045260245ffd5b8082028115828204841417612d0a57612d0a613cf1565b5f82613d3657634e487b7160e01b5f52601260045260245ffd5b500490565b81810381811115612d0a57612d0a613cf1565b5f60208284031215613d5e575f80fd5b8151612c9781613ad1565b60208082526012908201527110995d08191bd95cc81b9bdd08195e1a5cdd60721b604082015260600190565b600181811c90821680613da957607f821691505b602082108103610c0b57634e487b7160e01b5f52602260045260245ffd5b5f60208284031215613dd7575f80fd5b5051919050565b80820180821115612d0a57612d0a613cf1565b5f60018201613e0257613e02613cf1565b5060010190565b6001600160a01b03831681526040810160058310613e2957613e296136c2565b8260208301529392505050565b601f821115613e7d57805f5260205f20601f840160051c81016020851015613e5b5750805b601f840160051c820191505b81811015613e7a575f8155600101613e67565b50505b505050565b81516001600160401b03811115613e9b57613e9b613548565b613eaf81613ea98454613d95565b84613e36565b602080601f831160018114613ee2575f8415613ecb5750858301515b5f19600386901b1c1916600185901b1785556113e9565b5f85815260208120601f198616915b82811015613f1057888601518255948401946001909101908401613ef1565b5085821015613f2d57878501515f19600388901b60f8161c191681555b5050505050600190811b01905550565b604081525f613f4f6040830185613697565b90508260208301529392505050565b634e487b7160e01b5f52603160045260245ffd5b5f8351613f83818460208801613675565b9190910191825250602001919050565b5f815180845260208085019450602084015f5b83811015613fc257815187529582019590820190600101613fa6565b509495945050505050565b606081525f613fdf6060830186613f93565b8281036020840152613ff18186613697565b905082810360408401526140058185613697565b9695505050505050565b8281526040810160548310613e2957613e296136c2565b602081525f612c976020830184613f93565b838152606060208201525f6140506060830185613f93565b905063ffffffff60e01b8316604083015294935050505056fea26469706673582212202f0fafe7a07cead514e6d6a4ec0f6892822d232b1df60cf40048fe969c379ae264736f6c63430008180033",
  "linkReferences": {},
  "deployedLinkReferences": {}
}